S02B00002F686F6D652F6364616C7A2F576172702D6669726D776172652F6275696C642F6B73646B312E312F92
S113000000060020310500005905000059050000D4
S113001000000000000000000000000000000000DC
S1130020000000000000000000000000590500006E
S11300300000000000000000590500005905000000
S11300405905000059050000590500005905000034
S11300505905000059050000590500005905000024
S11300601F2D000059050000292D0000590500002E
S11300705905000059050000590500005905000004
S113008059050000590500005905000059050000F4
S1130090C50E0000DD0E00005905000059050000E2
S11300A059050000590500005905000059050000D4
S11300B059050000590500005905000059050000C4
S1130400FFFFFFFFFFFFFFFFFFFFFFFFFE3DFFFFBB
S1130410054B0648033310B51B1A062B03D9044BAE
S1130420002B00D0984710BDACFFFF1FACFFFF1F8F
S1130430000000000648074910B5091A8910CB0FBF
S11304405918491003D0044B002B00D0984710BD15
S1130450ACFFFF1FACFFFF1F0000000010B5074CEE
S11304602378002B09D1FFF7D3FF054B002B02D0D3
S1130470044800E000BF0123237010BDACFFFF1F40
S1130480000000003C670000094B10B5002B03D0AE
S11304900849094800E000BF08480368002B02D15E
S11304A0FFF7C8FF10BD064B002BF9D09847F7E7BC
S11304B000000000B0FFFF1F3C670000A8FFFF1F03
S11304C000000000144B002B00D1124B9D4640222B
S11304D092029A1A924600218B460F461148124AFC
S11304E0121A00F0F5F80D4B002B00D098470C4B76
S11304F0002B00D098470020002104000D000B4879
S113050000F02EF800F06AF82000290001F076F9D6
S113051000F034F80000080000060020000000008D
S113052000000000ACFFFF1FC8020020A905000066
S113053072B606480649074A02600A6002F0FAFBEE
S113054002F03AFC62B6FFF7BDFF000080E100E074
S113055080E200E0FFFFFFFF00480047590500006C
S113056010B5010000230022002000F0F1F910BDB5
S1130570014B18687047C04600FEFF1F084B10B5BA
S11305800400002B02D0002100F05AFA054B186831
S1130590836A002B00D09847200000F065FCC04619
S11305A0410A0000084F000070B5094B094CE41AD9
S11305B0A41009D0084AA518AD00ED182B68013C19
S11305C09847043D002CF9D106F0BEF870BDC04632
S11305D06067000064670000FFFFFF3F70B50D4EC9
S11305E00D4D0024AD1BAD1005D0A300F35801340C
S11305F09847A542F9D106F0A1F8084E084D002409
S1130600AD1BAD1005D0A300F35801349847A542A3
S1130610F9D170BD5C6700005C6700005C67000096
S11306206067000010B5034B0100186800F0E4F89F
S113063010BDC04600FEFF1F10B5034B0100186833
S113064000F090F810BDC04600FEFF1FF0B5050095
S11306500F2A2FD90B0003439B0734D116000C003B
S11306600300103E350901352D01451927681F6027
S113067067685F60A7689F60E7681034DF601033C5
S11306809D42F3D10F239E431036851989191340D7
S1130690032B1AD91E1F0023B4080134A400CF5819
S11306A0EF500433A342FAD10324A643331D22405E
S11306B0C918ED18002A05D00023CC5CEC54013392
S11306C09342FAD1F0BD0500F6E71A00F2E7C046FE
S11306D0F0B5830743D0541E002A3FD0CEB20200A7
S11306E0032502E01A00013C38D3531C16702B4238
S11306F0F8D1032C2AD9FF220A40150215432A04F3
S113070015430F2C14D927001A00103F3E09013657
S113071036019E19156055609560D5601032964279
S1130720F8D10F2297431037DB191440032C0DD94D
S11307301A00271FBE080136B6009E1920C2B24215
S1130740FCD1032297430437DB191440002C05D055
S1130750C9B21C19197001339C42FBD1F0BD1400BD
S11307600300C6E730B500290FD004390B68002B0D
S11307701EDB204B1A68002A05D08A4209D9086872
S11307800C18A24216D04A60196030BD8B4203D8BF
S11307901A005368002BF9D1156854198C4214D0EF
S11307A010D808680C189C421CD04B605160ECE7D0
S11307B0C918DEE714685268A446604408604A60B9
S11307C01960E2E70C230360DFE709686D1851192B
S11307D015609942D9D119685B688C4665441560E7
S11307E05360D2E71C685B68A446604408604B60B1
S11307F05160CAE7C8FFFF1F032370B5CC1C9C439C
S1130800083405000C2C28D20C24A14227D8294EE8
S1130810316800290AD00B681A1B04D437E01A681F
S1130820121B20D519004B68002BF8D17368002BDC
S113083039D02100280000F03FF8431C0FD00322D8
S1130840C61C9643B04205D0311A280000F034F893
S1130850431C04D0346033000AE0002CD5DA0C23A6
S113086000202B600DE00B2A0CD91A609B181C6029
S1130870180007210B301A1D8843821A01D05142F7
S1130880995070BD8B420AD05A684A60F0E70B2A2F
S113089003D84A680B003260EAE70B00E5E70A0078
S11308A00B003260E4E70021280000F005F87060D6
S11308B0BFE7C046C8FFFF1F002370B5064C050004
S11308C00800236000F0D2FA431C00D070BD2368F6
S11308D0002BFBD02B60F9E7C4020020031C0A782C
S11308E001311A700133002AF9D1704710B583071A
S11308F025D00378002B24D00300032102E01A78CA
S1130900002A1AD001330B42F9D119680E4A0F4C50
S11309108A188A43224206D1043319680A4A8A187B
S11309208A432242F8D01A001B78002B03D00132EC
S113093011780029FBD1101A10BD181AFCE7030026
S1130940E3E70020F8E7C046FFFEFEFE80808080DB
S1130950F0B54746CE4680B5354E83B034680500C1
S11309600F0091469846002C40D063681F2B12DD7F
S1130970304B002B59D08C20FFF754FE041E54D06A
S11309803268002302608822436030608350002D67
S11309903AD1873A19E0002D15D08822A0580028B2
S11309A02FD07832865849469A0082181160012166
S11309B099400E438946802149004650802641468D
S11309C09151022D0BD01D005A1C00200235AD00A0
S11309D062602F5103B00CBC90469946F0BD822250
S11309E04D46520081580D438550ECE7124C134B91
S11309F03460002BB9D01B6801938823019AE2501C
S1130A00B3E70C4B002B10D084204000FFF70AFE04
S1130A1000280AD0802200235200835004328350DD
S1130A208833E05000266368BDE701204042D1E7E7
S1130A305C00002025060000D0FFFF1F000000001E
S1130A40F0B5DE46454657464E46E0B5444B85B0C4
S1130A501B6803908B469846002B4FD0404B5F4653
S1130A609946424688235568D3589A466C1E54D4F6
S1130A708023AD0056195B00043D55449B460BE0B2
S1130A805346002B04D02B0080331B689F4205D0B3
S1130A90043E043D013C40D3002FF1D143465B6842
S1130AA07268013BA34232D000237360002AEFD066
S1130AB043465B6801935346002B26D001235146DD
S1130AC05846A340095819421FD08220514640007D
S1130AD00958029119421DD1296803989047434649
S1130AE0019A5B689A4203D14B461B684345CFD0B9
S1130AF01B4BBB461B689846002BAFD105B03CBCD2
S1130B0090469946A246AB46F0BD9047E7E7434678
S1130B105C60CBE728689047E1E7124B002BEDD0EF
S1130B2043465B68002B16D143461B68002BE5D077
S1130B304A4613605346002B02D05046FFF77CFD13
S1130B404046FFF779FD4B461B6898464346002B09
S1130B5000D086E7D2E743461B68C1469846F5E7CE
S1130B605C0000203906000002B4714649084900BF
S1130B70095C49008E4402BC7047C0460022430809
S1130B808B4274D303098B425FD3030A8B4244D351
S1130B90030B8B4228D3030C8B420DD3FF22090293
S1130BA012BA030C8B4202D31212090265D0030B52
S1130BB08B4219D300E0090AC30B8B4201D3CB0348
S1130BC0C01A5241830B8B4201D38B03C01A52418A
S1130BD0430B8B4201D34B03C01A5241030B8B428C
S1130BE001D30B03C01A5241C30A8B4201D3CB0277
S1130BF0C01A5241830A8B4201D38B02C01A52415C
S1130C00430A8B4201D34B02C01A5241030A8B425E
S1130C1001D30B02C01A5241CDD2C3098B4201D376
S1130C20CB01C01A524183098B4201D38B01C01AF4
S1130C30524143098B4201D34B01C01A524103096B
S1130C408B4201D30B01C01A5241C3088B4201D31A
S1130C50CB00C01A524183088B4201D38B00C01AC7
S1130C60524143088B4201D34B00C01A5241411AEE
S1130C7000D20146524110467047FFE701B50020FB
S1130C8000F0F0F802BDC0460029F7D076E77047BF
S1130C9003460B437FD4002243088B4274D30309D9
S1130CA08B425FD3030A8B4244D3030B8B4228D37A
S1130CB0030C8B420DD3FF22090212BA030C8B42A0
S1130CC002D31212090265D0030B8B4219D300E040
S1130CD0090AC30B8B4201D3CB03C01A5241830BC5
S1130CE08B4201D38B03C01A5241430B8B4201D375
S1130CF04B03C01A5241030B8B4201D30B03C01A9E
S1130D005241C30A8B4201D3CB02C01A5241830A17
S1130D108B4201D38B02C01A5241430A8B4201D346
S1130D204B02C01A5241030A8B4201D30B02C01A70
S1130D305241CDD2C3098B4201D3CB01C01A5241D7
S1130D4083098B4201D38B01C01A524143098B4260
S1130D5001D34B01C01A524103098B4201D30B0149
S1130D60C01A5241C3088B4201D3CB00C01A52416E
S1130D7083088B4201D38B00C01A524143088B4233
S1130D8001D34B00C01A5241411A00D201465241CC
S1130D90104670475DE0CA0F00D04942031000D3EB
S1130DA04042534000229C4603098B422DD3030A40
S1130DB08B4212D3FC22890112BA030A8B420CD350
S1130DC0890192118B4208D3890192118B4204D379
S1130DD089013AD0921100E08909C3098B4201D3F9
S1130DE0CB01C01A524183098B4201D38B01C01A33
S1130DF0524143098B4201D34B01C01A52410309AA
S1130E008B4201D30B01C01A5241C3088B4201D358
S1130E10CB00C01A524183088B4201D38B00C01A05
S1130E205241D9D243088B4201D34B00C01A5241DC
S1130E30411A00D20146634652415B10104601D369
S1130E404042002B00D54942704763465B1000D3F3
S1130E50404201B5002000F005F802BD0029F8D099
S1130E6016E770477047C046FEE7C0460A4B10B508
S1130E7019680200002901D1084919601868084955
S1130E8082188A4206D9FFF773FB0C230360012002
S1130E90404210BD1A60FCE760000020C802002038
S1130EA0C802002083780220984280414042704763
S1130EB0437A0020013B012B03D901200B78013335
S1130EC00B70704710B5002003F06EFC002803D0AF
S1130ED00021080003F05CFC10BD0000024A136806
S1130EE0013313607047C0468400002037B50020EA
S1130EF002F05EFBC02300240D4A9B0013600D4AE0
S1130F000D4D13600D4A200013600D4B2C716C7154
S1130F10AC711A68FA239B0053430A492B6003F00F
S1130F2091FC290001AA200003F0F2FC37BDC04661
S1130F30189014541C901454DC00002000A0145485
S1130F4084FEFF1FAC00002010B58024002003F0B5
S1130F50BBFC0A4B64001C60094B07201C60094B56
S1130F601C6002F0C1FD062002F0BEFD200002F06C
S1130F70BBFD002002F021FB10BDC04618901454A4
S1130F801C90145400A0145410B5002002F01AFB55
S1130F908023054A9B001360044A0549136000201E
S1130FA002F082FE10BDC0460CA0145410A01454CC
S1130FB08800002010B5002002F0B2FE80238220B9
S1130FC0074A5B001360074A4000136002F08CFD7F
S1130FD00420FF3002F088FD002002F0F8FA10BD72
S1130FE00CA0145410A0145400230120344A10B54A
S1130FF01360344A34491360344A0133FF331360B5
S1131000334A1360334A1360334A1360334A13601C
S1131010334A1360334A13600A78024032484DD091
S11310200360324A32481360002202603148026091
S1131030314A1360314A1360314A1360314A1360F4
S1131040314A1360314A13600B78DB0703D5022061
S1131050FF3002F03BFD092002F046FD0C2002F0B7
S113106043FD052002F040FD082002F03DFD06206E
S1131070FF3002F039FD0E20FF3002F035FD8320F1
S1131080400002F031FD0820FF3002F02DFD0C205D
S1131090FF3002F01BFD8220400002F025FD0420F9
S11310A0FF3002F021FD072002F01EFD062002F0B1
S11310B01BFD8020400002F017FD10BD0260B0E768
S11310C00C9014541090145480FEFF1F1490145468
S11310D0189014541C9014542090145424901454B4
S11310E03090145400A0145404A0145408A01454B0
S11310F00CA0145410A0145414A0145418A0145484
S11311001CA0145428A014542CA0145434A0145417
S113111010B5092002F0E8FC10BD10B50C2002F057
S1131120E3FC10BD384B10B5984243D029D8374B57
S113113098424ED017D8364B98423FD064339842E9
S113114040D0C83B984217D1052002F0CDFC0820BE
S113115002F0CAFC0620FF3002F0C6FC2D4B1868D2
S113116002F063F810BD2C4B984241D0643398428E
S113117042D02A4B984230D02949002001F0C3FDC7
S1131180ECE7284B984224D007D8274B984215D037
S11311906433984216D0254BD4E7254B984227D088
S11311A001D8244BE6E7C8231B01984224D0224BE4
S11311B09842E1D1052002F089FC20E0052002F0EC
S11311C085FCC4E7052002F08FFC082002F07EFCB9
S11311D0C0E7052002F07AFCF7E7052002F084FC62
S11311E0082002F081FC0620FF3002F06FFCB5E716
S11311F0052002F06BFCF3E7052002F075FC0820E3
S113120002F064FCEFE7C046C409000034080000A3
S11312106C07000088FEFF1FFC080000980800000F
S113122000650000540B00008C0A0000280A00002E
S11312301C0C0000B80B0000E40C000010B5FFF714
S113124071FF092002F042FC0C2002F04DFC8320C7
S1131250400002F049FC10BD10B5FFF763FF092000
S113126002F042FC0C2002F031FC8320400002F02A
S11312702DFC10BDAF220C4B10B5C3189BB29200CD
S1131280934202D8FFF7DAFF10BD084BC3189BB294
S1131290934202D8FFF7E0FFF6E70200044900207A
S11312A001F031FDF0E7C046F8F8FFFFD8F5FFFF85
S11312B09F4F000010B5FFF72BFFFFF72EFF832091
S11312C0400002F003FC024B186801F0AEFF10BDB1
S11312D088FEFF1F10B50400002901D0FFF784FE2B
S11312E00021022001F07CF82100042001F078F8AC
S11312F010BD10B5012420000021FFF7EBFF2100F1
S11313003C20FFF7E7FFF6E7F0B585B00391040052
S1131310160001219AB2002001F003F90700002C05
S11313201CD01C49002001F0DFFA1B4C206801F09E
S11313307CFF1A49002001F0D7FA206801F075FFFC
S11313401749002001F0D0FA206801F06EFF15491A
S1131350002001F0C9FA206801F067FF0025124C53
S1131360124923686268002000922A0001F0CBFC35
S1131370039801F017F922680D496368002000976B
S113138001F0C1FC002E02DD300001F04EFF0135FA
S1131390E5E7C046466100007CFEFF1F6E61000069
S11313A0906100004A5B000000D00340B56100007A
S11313B0C1610000F0B591B01D0016AB0B91197816
S11313C017AB04921A7818AB1B7804000C931CAB6F
S11313D01B780EA80D931DAB1B880F1C08932123AB
S11313E01B18DB7F09931FAB1B880E9320AB1B7864
S11313F00A93914200D9171CFFB2049B002D06D119
S1131400002B06D15749002001F07DFC01E0002BA0
S1131410F8D10898FFF72EFF2100002001F064FAAC
S11314200023089C069303930593029300230793D8
S1131430079B199A93426BDC002634E0BB190F9387
S11314403C226B469B18187801210B9B9847002877
S113145044D1029B01330293089B9C4204D9643C0F
S1131460A4B22000FFF706FF002D22D0099A6B7B5F
S1131470D31A5A425341039AD31803930A9B002B5D
S11314800AD0EB7A297B687B00910190DBB2BA1910
S11314903549002001F037FC1B9B002B02DD1800AE
S11314A001F0C3FE01361A9B9E42C7DB079B013342
S11314B0BDE7049B099A1B7A9B1A5A425341039A2B
S11314C0D31803930A9B002BE6D0049BF2191B7AD2
S11314D02649DBB2280001F016FCDDE7022810D112
S11314E0BA192349002001F00EFC059B0133059332
S11314F00E9B9C42D0D26434A4B22000FFF7BAFE03
S1131500CAE7033843425841069B1B180693C3E7B6
S11315100D9B002B1FD1029A059B944615496344E9
S1131520002001F0F0FB322001F07FFE099B039ABA
S113153000931149029B002001F0E5FB322001F0E9
S113154074FE069A0D49002001F0DDFB322001F003
S11315506CFE11B0F0BD01370C9BFFB29F4200D866
S113156064E7D8E700650000D74F0000FC4F000097
S113157011500000245000003C5000006D50000049
S1131580F0B591B00D9316AB0C9102CB04001F780B
S11315901AAB1B880E910F931BAB1E881CAB1D78D6
S11315A000284DD01000FFF7EFFC601E11284BD827
S11315B0FFF7DAFA09252A2C2E4A30323436383A23
S11315C03C403E4A42440F9B0C9A07930D9B009269
S11315D00693189B0A9705930E9B09960493199BEF
S11315E0089503933123029300231A4A01931A495D
S11315F01A48FFF7DFFEFFF7DDFC11B0F0BD184914
S1131600002001F071F9F6E71649F9E71649F7E702
S11316101649F5E71649F3E71649F1E71649EFE7E6
S11316201649EDE71649EBE71649E9E71649E7E7F6
S11316301649E5E71649E3E71649E1E71649DFE706
S1131640164901F051F9D8E722001549002001F0AC
S11316505AFBD0E77400002041250000CE61000051
S1131660DC6100000762000038620000686200006C
S113167098620000C5620000F26200001E63000070
S11316804C63000078630000A5630000D163000090
S1131690FD6300002A6400005664000082640000B8
S11316A0AE64000002003038092805D91300613BFC
S11316B0052B02D8573A100070471300413B002015
S11316C0052BF9D8373AF6E770B501F028F904008C
S11316D001F025F9FF26050020003040FFF7E2FF66
S11316E0040028003040FFF7DDFF24012018C0B2B9
S11316F070BD70B501F013F9060001F010F9050092
S113170001F00DF9040001F00AF9FF22FA23642123
S113171016401540303E14409B00303D4D4373430A
S11317205A39303C4C435B1910401B193038181897
S113173070BD000070B50C00160088B00CAA1578B6
S113174006A908800A4A05A805700A4D12682D6882
S11317504A6004AA167001930090230002950020A9
S113176002F00AFC431E9841400008B070BDC04618
S113177074FEFF1F78FEFF1FF7B56A46CB1DDB081A
S1131780DB00D31A02AF9D4605000C00FFF7AEFB49
S1131790FA23002102AE9B002A0001930094330037
S11317A0080003F011F90400FFF7CEFB2000BD464A
S11317B0441EA0418000F2BD10B50249002001F092
S11317C093F810BD1A61000010B5094C00202100E7
S11317D001F08AF82100002001F086F80549002074
S11317E001F082F80449002001F07EF810BDC046E3
S11317F00C4F00003C4F00006D4F0000F0B5B9B035
S113180025AC002107222000FEF762FFFA4A0125D9
S11318102C92032215AB2F9317AB309319AB329351
S11318201DAB34931FAB359321AB369323AB379366
S11318302CAB1BAF1A71002011AA2E92149333976C
S11318402570319401F0ACFE280001F0A9FE80223D
S1131850EA4B12021A6001F007FD002300951A00FA
S11318601900180001F062F8E549002001F03CF885
S1131870C82001F0DAFCE349002001F035F8C82063
S113188001F0D3FCE049002001F02EF8C82001F05B
S1131890CCFCDE4A2B000221DD4801F009FD2900C1
S11318A0280001F011FD002002F0BCFE0026FC23FC
S11318B029A9DB0030000B804D808D80CE800E8105
S11318C08E7202F0DBFE2A00310011A8FEF700FF41
S11318D04820259B08A91993A28809180A80A2798F
S11318E0023008A909180A70442108AA521841397B
S11318F011701B93A28808A9BA80A2791038BA7112
S113190005223A701593A28802270A87A27909183A
S11319100A70342108AA521817701793A288063047
S113192008A909180A80A279C01908A909180A7017
S11319300422063808A909180A701D93A2881C30CD
S113194008A909180A80A279C01908A909180A70F7
S11319500822063808A909180A701F93A2880C30B7
S113196008A909180A80A279C01908A909180A70D7
S11319700921063808AA121811702193A3880C3083
S113198008AA12181380A379C01908AA1218137090
S11319900A23063808AA121813706C2208AB9B1885
S11319A01E7014AA2B002FA801F05AFE3100380033
S11319B000F016FD9749984802F06EF8FFF714FB03
S11319C00820FF3002F082F8C82001F02EFC082025
S11319D0FF3002F089F8C82001F027FC0820FF300E
S11319E002F074F8C82001F020FC0820FF3002F057
S11319F07BF8C82001F019FC0820FF3002F066F8DB
S1131A00C82001F012FC0820FF3002F06DF8834971
S1131A101D2000F081FD8249402001F007FB802752
S1131A20FFF748FC01F028FA3300089609963F02B4
S1131A300B9603330A937B49002000F055FF7A4C40
S1131A40206801F0F2FB7949002000F04DFF206886
S1131A5001F0EBFB099B089A7549002001F053F94A
S1131A60206801F0E2FB734E734D744932682B68B1
S1131A700968002000910197714901F044F9206838
S1131A8001F0D3FB6F4B704A7049D2586F4B002062
S1131A905B69096800916E4901F035F9206801F02D
S1131AA0C4FB6C4B6B491A785B788979D2B2DBB290
S1131AB000910020684901F026F9206801F0B5FB87
S1131AC0644B66491A7A1B7E0978D2B2DBB2009164
S1131AD00020634901F017F9206801F0A6FB614B6F
S1131AE061491A785B780969D2B2DBB200910020AF
S1131AF05E4901F008F9206801F097FB5C4B5249FC
S1131B009A785C4BD2B2CB58504900204968009176
S1131B10594901F0F8F8206801F087FB574B584900
S1131B201A6811AB1B78002001F0EDF8206801F071
S1131B307CFB5449002000F0D7FE206801F075FBBF
S1131B405149002000F0D0FE206801F06EFB4F499F
S1131B50002000F0C9FE206801F067FB4C4900201A
S1131B6000F0C2FE206801F060FB4A49002000F04A
S1131B70BBFE206801F059FB4749002000F0B4FE89
S1131B80206801F052FB4549002000F0ADFE2068BA
S1131B9001F04BFB4249002000F0A6FE206801F052
S1131BA044FB4049002000F09FFE206801F03DFB0B
S1131BB03D49002000F098FE206801F036FB0A9BA6
S1131BC0099A3A49002001F09EF8206801F02DFBA3
S1131BD03749002000F088FE206801F026FB3549D3
S1131BE0002000F081FE206801F01FFB3249002034
S1131BF000F07AFE206861E0B10E0000B802002017
S1131C00825000009D500000A350000064FEFF1F9E
S1131C1090FFFF1FA0FEFF1F90FEFF1F7400002017
S1131C2064000020AA5000007CFEFF1FCE5000007C
S1131C300051000074FEFF1F84FEFF1F8CFEFF1F77
S1131C40345100003C1000000070044000D00340F8
S1131C506C51000000400640A251000000500640B4
S1131C60D151000000E0074000ED00E00152000007
S1131C7000D00740341000003B52000084000020D4
S1131C8073520000A1520000AB520000C852000081
S1131C90E4520000005300001D53000044530000B0
S1131CA06353000082530000AD530000D053000082
S1131CB0FF5300001B5400003F54000001F0B5FA2C
S1131CC0A149002000F010FE206801F0AEFA9F49FF
S1131CD0002000F009FE206801F0A7FA9C490020CA
S1131CE000F002FE206801F0A0FA9A49002000F0FA
S1131CF0FBFD206801F099FA9749002000F0F4FDFB
S1131D00206801F092FA9549002000F0EDFD20686A
S1131D1001F08BFA9249002000F0E6FD206801F002
S1131D2084FA9049002000F0DFFD206801F07DFA7C
S1131D308D49002000F0D8FD206801F076FA8B4927
S1131D40002000F0D1FD206801F06FFA88490020DE
S1131D5000F0CAFD206801F068FA00F0E0FDFF23FE
S1131D6002000C901A406A2A00D1F2E100DD80E002
S1131D70642A00D1C5E120DC612A00D120E107DC1E
S1131D800A2A00D1A0E22C2A00D192E27949B4E1D6
S1131D90622A00D1A2E1632AF8D17749002000F039
S1131DA0A3FDFFF7A6FC28602A68744B9A4201D170
S1131DB0734B2B602A6873499FE1672A00D1B5E110
S1131DC048DC652A00D1A7E1662ADFD16E490020EC
S1131DD000F08AFDFFF778FC6C4C0200210005003E
S1131DE0002000F090FF6A49002000F07DFDFFF71D
S1131DF06BFC282108AB5B1802001870210000203E
S1131E0000F081FF6349992D00D126E2336827ACA5
S1131E10089828932580FFF72DFA3800FFF7B4F8C7
S1131E2024216B465B181B7813AA13705A4B12A912
S1131E301B6800200293012300910193210002F00A
S1131E409BF8021E03D05549002000F05CFFFFF709
S1131E50B1F8F0E5682A00D173E1692A96D15049B6
S1131E60002000F041FDFFF744FC87B23A004D49E1
S1131E7043E1702A00D1DFE13EDC6D2A33DC6C2AB9
S1131E8000DABDE14849002000F02EFD474900205A
S1131E9000F02AFDFFF718FC27AE307044490020FB
S1131EA000F022FDFFF725FC30226B469B181D78BD
S1131EB004003378089A6C2D00D0A7E101920097B2
S1131EC002003C49002000F01EFF0025A54200DB73
S1131ED0B1E527AB1A78002301210093FF20FFF717
S1131EE029FC0135F2E76E2A00D1A0E16F2A00D067
S1131EF04CE7FFF7DFF99EE5742A00D19BE50CDC83
S1131F00722A00D19EE1732A00D03FE726490020BF
S1131F1000F0EAFCFFF750FC8DE5782A00D194E14B
S1131F207A2A00D19EE1752A00D02FE70B9B224923
S1131F30002B00D191E12149002000F0D5FCFFF7EE
S1131F40C3FB0B9B187076E5635400007D540000BE
S1131F5098540000B6540000D3540000F25400001A
S1131F60115500002B550000565500007655000011
S1131F709C550000045A00006E5A00000F27000010
S1131F80102700009C5A00004D5B0000805B00009D
S1131F90965B0000BF5B000078FEFF1FE55B00005E
S1131FA0825C0000BE5C0000545C00008B5E00009C
S1131FB0AA5E0000CA5E00005A5F0000985F00003D
S1131FC0C249002000F090FCC149002000F08CFCC4
S1131FD0206801F02AF9BF49002000F085FCBE49C1
S1131FE0002000F081FCBD49002000F07DFC206849
S1131FF001F01BF9BA49002000F076FC206801F0DA
S113200014F9B849002000F06FFC206801F00DF9C4
S1132010B549002000F068FC206801F006F9B349D6
S1132020002000F061FC206801F0FFF8B0490020B6
S113203000F05AFC206801F0F8F8AE49002000F0E6
S113204053FC206801F0F1F8AB49002000F04CFC8F
S1132050206801F0EAF8A949002000F045FC206856
S113206001F0E3F8A649002000F03EFC206801F0EE
S1132070DCF8A449002000F037FC206801F0D5F812
S1132080A149002000F030FC206801F0CEF89F49FF
S1132090002000F029FC206801F0C7F89C490020CA
S11320A000F022FC206801F0C0F89A49002000F0FA
S11320B01BFC206801F0B9F89749002000F014FCDB
S11320C0206801F0B2F800F02AFCFF220240352A11
S11320D000D05BE6914B0B930123ABE490490020C5
S11320E000F002FCFFF705FB306032688D4B9A422A
S11320F001D18D4B336032688C49002000F003FE1F
S113210099E48B49002000F0EFFBFFF7F2FA894BCA
S1132110894918601A68F0E78849002000F0E4FB58
S1132120FFF7D2FA864909900200E6E785490020C4
S113213000F0DAFBFFF7DDFA83B208931A00824954
S1132140DBE78249002000F0CFFB0120FFF73CFBD6
S113215071E4099A7E49002000F0D5FD00F0DFFB10
S11321607C490400002000F0BFFB00F0D8FB7A4952
S11321700D90002000F0B8FB00F0D1FB77490E90E1
S1132180002000F0B1FBFFF7B4FA75490C90002071
S113219000F0AAFBFFF7ADFA72490600002000F038
S11321A0A3FBFFF7A6FA70490500002000F09CFB92
S11321B0FFF78AFA0C9B0F9002930A9A099B6B49CA
S11321C001970096002000F09EFD0F9A303C069285
S11321D0089A631E9C4104920C9AADB202920E9A24
S11321E0E3B2303A511E8A4101920D9A0595303A74
S11321F0009203963A0009990A98FFF7C1F91AE484
S11322005B49002000F070FBFFF773F80092594916
S11322100200002000F077FD0025A54201DBFFF756
S11322200AFC012127A8FFF7A7FA0135F5E708986A
S1132230FFF720F8FFF7FFFB0021022000F0D0F8A1
S1132240FFF7F9FB00210820F8E74B49002000F0D4
S11322504BFB354800F0E9FF4849002000F044FBFF
S1132260FFF7E9FB4649002000F03EFB3800FEF78B
S11322708BFE4449002000F037FB00F050FB42493C
S11322800500002000F030FBFFF733FA86B232007D
S11322903E49002000F037FD206800F0C6FFE9B297
S11322A068394D4269413B00C9B232000120FFF751
S11322B02BF83800FEF768FE3549002000F014FBC7
S11322C000F0F8FEFFF7B7FB3249C6E7AF55000050
S11322D0BA550000F85500003A5600007B5600003D
S11322E0BB560000EB56000028570000675700005B
S11322F0A5570000E2570000205800005D58000078
S11323009C580000D9580000025900003F590000B1
S113231076590000B3590000F05900007400002001
S1132320205A00000F270000102700004E5A00001A
S1132330B65A00008CFEFF1FE55A0000005B000047
S1132340365B0000065C0000325C0000545C000058
S1132350DB5C0000155D00003E5D0000575D000081
S1132360965D0000C25D0000FA5D00002B5E000077
S1132370685E00001C5F0000D05F0000EF5F00009B
S1132380F95F0000126000003B6000008360000001
S1132390BB600000E86000001FB5040001A9002034
S11323A002F094F9694601A802F0CEF8009B01A955
S11323B01C196846009402F04FF8012201A900207C
S11323C002F0B0F91FBD00000022034B1A60802206
S11323D0024B1206DA67704700A01C5804E100E0C3
S11323E010B50A230C0008281CD8FEF7BDFB051DF8
S11323F02A3F54676C6F5C0001F0CCFA0523012876
S113240010D0FFF7E1FF2000FFF7C6FF002108000E
S113241001F04AF901210400002000F055FF002CCE
S113242022D00923180010BD01F0B4FA06230128B4
S1132430F8D0FFF7C9FF2000FFF7AEFF002101200D
S1132440E6E701F0A7FA08230128EBD000F0C4FF67
S1132450002803D00121002000F036FF00210220D3
S113246001F022F90028DCD10023DBE701F092FA25
S113247007230028D6D0FFF7A7FF2000FFF78CFF23
S11324800021032001F010F9040001F083FA012176
S11324900028C4D1C1E7FFF797FF2000FFF77CFFB6
S11324A000210420EEE70021082001F0FDF80028B7
S11324B0B7D10121080000F007FFD5E7002105206E
S11324C001F0F2F8ADE700210620F9E7002107202A
S11324D0F6E700000B0000B50C4A89B0127806A993
S11324E00A800B4A12684A6005AA107004A8037097
S11324F0084B1B680090029301230020019301F014
S11325003BFD431E9841400009B000BD740000200B
S113251074FEFF1F78FEFF1FC223FF3308704B6059
S1132520704770B50D0001000920FFF7D3FF2900A3
S113253004002A20FFF7CEFF2043C0B270BD000084
S11325400B00FF2110B588B005AA117018281AD8FD
S1132550092801D206281AD80E4910700C7806A949
S11325600C800D4C0D48246800684C6001930C4BA2
S1132570029000930020012301F00BFD431E9841BB
S1132580400008B010BD01001D391429E4D903200E
S1132590F7E7C0467400002074FEFF1F78FEFF1F9B
S11325A07C00002070B5022104000120FFF7C8FF61
S11325B0304D2A7A6B7AD2B2DBB2002820D02E4971
S11325C0002000F091F902210320FFF7B9FF2A7AD5
S11325D06B7AD2B2DBB2002825D02749002000F064
S11325E083F902210520FFF7ABFF2A7A6B7AD2B276
S11325F0DBB200282AD02049002000F075F970BD14
S1132600002C03D01D4900F07EFBDCE79B089201FF
S11326101A4380239B015A40194B1A49D2182000AF
S113262000F071FBCFE7002C03D0144900F06BFBE2
S1132630D7E79B0892011A4380239B015A40104B11
S11326401049D218200000F05EFBCAE7002C03D02A
S11326500A4900F058FBD2E79B0892011A438023F1
S11326609B015A40064B0749D218200000F04BFB4F
S1132670C5E7C046740000202D65000034650000E5
S113268000E0FFFFBC6100000369C268934201D807
S113269080681B18013B981A7047F7B58368C768B0
S11326A00500406801911400DE1BC019964204D94C
S11326B0FDF7CCFF3C19EC60F7BD32000199FDF742
S11326C0C5FF019BA41B991922006868FDF7BEFF92
S11326D0F1E70023F7B506001700C56801910093E0
S11326E03369B4689D421FD2013B5B1B641BBC422F
S11326F000D93C009C4200D91C0073682200581980
S11327000199FDF7A3FF009B2D191B190093019B51
S11327103F1B1B190193B3689D4200D10025F5604E
S1132720002FDDD10098FEBD1B19DDE7022310B593
S11327300F4C104A236163610F4BA261E361C8230C
S1132740A2640E4A2362E26400230422A362636249
S1132750E362A3656365E3652265E01D0849FEF74E
S1132760BDF808492000FEF7B9F82023A37110BD75
S1132770E400002044650000600100205C010020AA
S11327804D65000051650000F0B5274B85B01B78FE
S1132790019002911500002B01D1FFF7C7FF182308
S11327A0019A5343204AD3185A6D9C6D0392944264
S11327B036D91B6D2E001B1B9D4200D91E00182705
S11327C0019B32005F43184B0298DF19FB6CAD1B71
S11327D01919FDF73BFF029BA41998193B6D9C4204
S11327E000D10024039B1B1B9D4200D91D00002D1A
S11327F00BD01823019A761953430B4AD318D96C7A
S11328002A000919FDF722FF6419002E05D01822A9
S1132810019B5A43044B9B189C65300005B0F0BDE6
S113282002980026DEE7C046E400002010B50B0045
S1132830EFF31084012181F310881900FFF7A4FF3E
S113284084F3108810BD0000F8B516001822451C4A
S113285055434243164B0F005D199B18DC6A012C4B
S113286012D0002C03D0022C1BD000240AE0280034
S1132870FFF70AFFB04205D3320039002800FFF702
S11328800CFF34002000F8BD2800FFF7FDFE3400E3
S1132890864200D90400220039002800FFF7FDFE1B
S11328A0F0E732002800FFF714FF0400EAE7C0460F
S11328B0E4000020F8B50B4B05001B780E00170050
S11328C0002B01D1FFF732FFEFF31084012181F3D4
S11328D010883A0031002800FFF7B6FF84F310880F
S11328E0F8BDC046E400002070B5050008000C00E7
S11328F0FDF7FCFF210002002800FFF7DBFF70BD9D
S113290013B56B46DC1D012221000020FFF78EFF6A
S1132910012801D1207816BD01204042FBE710B503
S1132920FFF7EEFF0028FBDB10BD0000F7B5164CE7
S11329300193237805000F001600002B01D1FFF747
S1132940F5FE2369AB421CD9EFF31082012181F318
S11329501088002D0CD01823691C59436B43675011
S113296061184E600199E318196200219962596255
S113297018235D43089B6419E36282F310880020E6
S1132980FEBD01204042FBE7E4000020826810B550
S113299004004068531C834205D820688154A36016
S11329A0E3680133E360A26863689A4209D121684D
S11329B02069FFF77FFFA368984203D001235B429D
S11329C0E36010BD0023A360FBE70000F0B5040042
S11329D01D000800012685B00A9F00910192019B09
S11329E098421AD20296AE4200D2029501230B9A63
S11329F01A4003920CD1002F0AD00B9B20269B0770
S1132A0003D51036002D00D0103E029BBB4209D3E3
S1132A10E368002B10DA05B0F0BD0199FEF7AEF8BB
S1132A200136DCE731002000FFF7B0FFE368013F27
S1132A30002BEDDB002FE8D10126012D03D9013D48
S1132A40019B5E43F9E731000098FEF797F8019B7C
S1132A508342F5D900983100FEF790F83100050063
S1132A600098FEF711F9104B00912000595DFFF713
S1132A708DFFE368002B05DB30000199FEF77EF83B
S1132A80061EE7D1039B002BC5D0002FC3D0029BA9
S1132A90BB42C0D220212000FFF778FFE368013F4A
S1132AA0002BF2DAB7E7C04658650000F0B59FB0D6
S1132AB00EAB099340230A930023150007900B9350
S1132AC00D900C930B784C1C002B07D10C9B03939B
S1132AD0002B00DD04E10C981FB0F0BD252B00D0C5
S1132AE0F8E000270220082202314E1E33782B2BF7
S1132AF018D00DD8232B17D000240A2233781900BC
S1132B003039092912D85443303C01361C19F5E7F1
S1132B102D2B04D0302BEFD107430131E5E70123FE
S1132B201F43FAE70423FBE71743F6E70022039267
S1132B302E2B0DD10A21013632781300303B092B9C
S1132B4006D8039B01364B43303BD3180393F3E77A
S1132B50317804220B009343682B01D10136F7E747
S1132B60642928D009D8582917D063291DD02529CC
S1132B700AD109A8FFF70AFF06E0732900D190E003
S1132B8007D8702900D19DE0711C0C9B002B99DAA9
S1132B909CE775297CD07829F6D1296801970B1D0B
S1132BA02B60039B0094102279E02B6819681A1D8E
S1132BB02A60C9B2DDE72B681A1D1B682A60DA1780
S1132BC098180493012350400593092847DC039B7C
S1132BD0059A0693934200D20692002C06D0049BD9
S1132BE0002B02DB04231F4200D0013CBB0702D5AB
S1132BF0039B002B04D001231F4201D1002C3ED1A2
S1132C000C9B002BC0DB049B002B3CDA2D215B4288
S1132C10049309A8FFF7BAFE0C9B002BB4DB032333
S1132C203B40022B0FD1039B002B0CD1002C68D00E
S1132C30069BA34207D2302109A8FFF7A7FE0C9BED
S1132C40013C002BF2DA0C9B002B9DDB0A22039B38
S1132C5004990197009409A8FFF7B8FE94E70A21A4
S1132C60FEF716F8059B0133AEE7202109A8FFF70C
S1132C708DFE0C9B013C002BC2DB002CC3D0069BB9
S1132C80A342F2D3BCE704231F42C5D02B21C0E7E3
S1132C900A22296801970B1D2B60039B0094096885
S1132CA0D9E72B681A1D2A601C6821780134002991
S1132CB000D169E709A8FFF769FE0C9B0393002B79
S1132CC0F3DA61E729680B1D2B60002301930833B5
S1132CD0009368E7190009A8FFF758FE210054E79C
S1132CE00B9A002A03D00EA90798FFF7E3FD0C9B6B
S1132CF003930B9B0493049A039B944663440C93A1
S1132D00E9E60024A2E70EB403B503AB02CB01AAA3
S1132D100193FFF7CBFE02B008BC03B0184710B50F
S1132D20002000F0EFFE10BD10B5002001F058FDAA
S1132D3010BD0000082310B5164A9178194202D03C
S1132D4091780B439370882100222220124B490171
S1132D505A501249124C08708020124940025850AF
S1132D601968114801401960195910480840C021D8
S1132D7089040143195180210D4B1A7219767F3948
S1132D801A7059700B490A700C3299791142FCD1AE
S1132D9010BDC04600D007400070044000E007406A
S1132DA00410000044100000FFFFF3FFFFFFFFF0DA
S1132DB000400640005006401349144810B58142B3
S1132DC005D00022124B9B089B009A4210D1114B54
S1132DD0114A9960002311491148521A9A420BD1A1
S1132DE0002318000F49104A521A934208D110BD0B
S1132DF084588C500432E8E7CC5CC4540133EDE7CA
S1132E00CC1820700133F0E700000000000000003F
S1132E100000000000ED00E010690000646700009D
S1132E2000FEFF1FACFFFF1FC802002037B50E24B1
S1132E30FF340500200000F049FE0A2000F0F5F9F7
S1132E40200000F051FE0C2000F04EFEFA23084A48
S1132E509B00157000210193012308000093054B8A
S1132E6001F0B2FD0500200000F030FE28003EBD58
S1132E702902002028020020C02310B58024654ABE
S1132E809B001360644A64001360FEF72FF8634BE1
S1132E9020001C60624B1C60624B1C6000F016FE3C
S1132EA0642000F0C2F9200000F01EFE642000F04F
S1132EB0BCF9200000F00AFE642000F0B6F9AE2050
S1132EC0FFF7B4FFA020FFF7B1FF7220FFF7AEFFBA
S1132ED0A120FFF7ABFF0020FFF7A8FFA220FFF718
S1132EE0A5FF0020FFF7A2FFA420FFF79FFFA82063
S1132EF0FFF79CFF3F20FFF799FFAD20FFF796FFF8
S1132F008E20FFF793FFB020FFF790FF0B20FFF711
S1132F108DFFB120FFF78AFF3120FFF787FFB32031
S1132F20FFF784FFF020FFF781FF8A20FFF77EFF81
S1132F306420FFF77BFF8B20FFF778FF7820FFF7F3
S1132F4075FF8A20FFF772FF6420FFF76FFFBB2035
S1132F50FFF76CFF3A20FFF769FFBE20FFF766FF1B
S1132F603E20FFF763FF8720FFF760FF0620FFF78F
S1132F705DFF8120FFF75AFF9120FFF757FF822062
S1132F80FFF754FF5020FFF751FF8320FFF74EFF58
S1132F907D20FFF74BFFAF20FFF748FF2620FFF708
S1132FA045FF0120FFF742FF2520FFF73FFF0020E8
S1132FB0FFF73CFF0020FFF739FF5F20FFF736FFE4
S1132FC03F20FFF733FF2220FFF730FF0020FFF7F9
S1132FD02DFF0020FFF72AFF5F20FFF727FF3F2088
S1132FE0FFF724FF0020FFF721FF3F20FFF71EFF1C
S1132FF00020FFF71BFF0020FFF718FF3F20FFF71B
S113300015FF0020FFF712FF07490020FFF76CFCB3
S1133010002010BD209014542490145434A014544F
S11330203090145400A01454686500000870704770
S11330307FB50B4B04A91B780B800A4B1B684B60B4
S1133040094B1B6801900293084B009300231A005C
S1133050180000F09EFF431E9841400007B000BDD9
S11330606400002074FEFF1F78FEFF1F6C00002028
S113307010B50C000C4B88B01B7806A90B8005AA70
S11330800A4B10700A481B6800684B6004AB1C7044
S11330900290002000930190012300F06DFF431E75
S11330A09841400008B010BD6400002074FEFF1F6A
S11330B078FEFF1F13B5012200210220FFF7D8FF7D
S11330C00220FFF7B5FF3E21114C0020227A637ADB
S11330D052019B080B401A4393000E49FFF713FE5D
S11330E0012200211000FFF7C3FF0220FFF7A0FF19
S11330F06421227A637A12021A430A2312B25143D8
S11331005343009100200449FFF7FDFD13BDC04661
S11331106400002088650000BB6500000023417046
S11331204360037083601800704710B5437804004F
S11331300120FF2B08D000F05BFA63780133DBB287
S1133140637000F049FA002010BD0020704770B58C
S113315004000D0000F04CFAE1682943E16000F03E
S11331603BFA002070BD000000220A4B9A641A004A
S113317040329A631A0030329A621A0020329A61FD
S11331801A0010329A60044A1360044B9B60DB609F
S11331907047C046300200202C020020800200202C
S11331A00022024B1A60186880B270470C007C50F1
S11331B070B5437804000D00002B0BD0002500F0FF
S11331C017FA6378013BDBB26370257000F004FAF0
S11331D0280070BD02200029FBD02378002B17D0D3
S11331E0FFF7DEFF6368A268984204D3C01A8242E4
S11331F006D30320EDE7C01A80235B02C018F6E76C
S113320000F0F6F90023237000F0E6F90220E0E76D
S11332104B1CEED000F0ECF90123237000F0DCF934
S1133220FFF7BEFFA5606060E3E770B50500FFF738
S1133230B7FF802604007602FFF7B2FF844203D86A
S1133240001B8542F8D270BD331B1818F9E710B57E
S1133250012801D100F0CCF910BD10B5012801D12D
S113326000F0BAF910BD000010B5FFF77DFF01238F
S11332700020084A08491360084A094C1060086095
S113328004212160074C216007490B60074908604D
S1133290136010BD388004500000845000000450B6
S11332A0000004510400045104000C5000000453B5
S11332B010B5044C206021710020A2602373637355
S11332C010BDC04690020020F0B587B005AC019057
S11332D00291032200212000FDF7FAF96B461B79C5
S11332E0042223706B461B7A3A4D63702B7900924B
S11332F0019A934227D900222B7B16006B7301237A
S11333000092A3700393334F3B7BB3421ED8009BC0
S1133310002B02D0029B012B49D10120FFF797FF1C
S11333200C20019B022658432B68181800F0C2F8A1
S11333306B461B7901206B710025FFF78EFFA67089
S11333403B7BAB421AD8009807B0F0BDBA68B30013
S11333509B58002B0FD01A7903990A420BD01A6894
S1133360996820009047002805D0029B7E73002BAB
S11333701BD0052300930136F6B2C4E7BA68AB004C
S11333809B58002B0ED01A7932420BD01A689968D8
S113339020009047002805D0029B7D73002B16D097
S11333A0062300930135EDB2CAE7052300930023F9
S11333B0A370013EF6B2FF2EC5D0AA68B3009B5895
S11333C0002BF6D01A68996820009047F1E706238D
S11333D00093B8E790020020014B58797047C0462B
S11333E09002002013B504000020217801900229E6
S11333F020D0032922D0012925D1227901AB1448F8
S113340000F0BEFF002814D1A3795A1E9341114A3B
S1133410DB01137063785A1E93410F4A5B001370EB
S1133420A2780E4B1A70E2780D4B1A7062790D4B2C
S11334301A7016BD227901AB0100E0E701A9044826
S113344000F0E0FFDEE701A9014800F07DFFD9E7C5
S11334500040064018408653004086500040065005
S113346001400650184016504309074A9B009B1818
S1133470F822C0051205104080225205104318435B
S1133480002303607047C04628800440F8214309A4
S1133490074A9B009B180905C2051140802252056A
S11334A00A4313431F2210401E3A82401A60704799
S11334B028800440072373B5009300230400104DB3
S11334C01A000121280001F07DF92000FFF78AFF8E
S11334D0637A217A0093002328001A0001F072F91C
S11334E0E379084A9B041360074BA17A1D682800FE
S11334F000F0A4FF2800E17A00F0A7FF002076BDC9
S11335000070044000700C595866000010B505485E
S113351000F0DCFE044B1968C9B20131FDF72EFB43
S113352010BDC0460040064044801C5E10B5FFF745
S1133530EDFF10BD10B5054800F0C8FE044B196836
S1133540C9B20131FDF71AFB10BDC0460040064068
S11335504480145810B5FFF7EDFF10BD0B4B1B68EA
S1133560DBB2022B0CD0032B0DD0002B01D000209A
S11335707047074A1068802212029042F7D1F7E799
S1133580044B1868F4E7FA208000F1E700700C5946
S1133590B8020020BC02002010B5FFF7DFFF10BD09
S11335A010B5024B185CFFF771FF10BD08660000F0
S11335B010B57620FFF76AFF10BD10B57620FFF72F
S11335C053FF10BD10B56620FFF760FF10BD10B5A6
S11335D06620FFF749FF10BD044A1368002B04D08E
S11335E0013B1360002B00D162B67047A00200209B
S11335F072B6024A1368013313607047A0020020B8
S113360010B50B4B0B490A78002A07D0084C0A481E
S113361001F06CFB012806D1002003E0013B002BE4
S1133620F1D1032010BD013C002CF0D1F9E7C046D4
S1133630EA03000002D0075100E0074010B5064C31
S1133640064801F053FB042801D1002010BD013CC1
S1133650002CF5D10320F9E7EA03000000E007405D
S1133660F7B507000E00150001930120002F18D0B4
S1133670002916D0FFF7EBFD0A4C10220021200090
S1133680FDF726F827602671002D06D06B461B79BE
S1133690A56023736B461B7963730120FFF7DDFD7F
S11336A00020FEBDA4020020F0B5B44C8DB0039000
S11336B00291237B01206373FFF7C9FD2379039AE9
S11336C0934206D80120FFF7C8FD022738000DB049
S11336D0F0BD039A23689200D5586B461B7A09AE55
S11336E02C7833726B461B7B2200337002239A437F
S11336F075600492012A01D0052C0AD10121A04849
S113370001F046FA002807D10120FFF7A6FD0127A2
S1133710DCE70321072CF2D80123002773720197F9
S11337200593964E019A337B934234D80120FFF7D8
S113373094FD944800F0EEFD049B012B54D1013814
S1133740C0B2022804D8FFF7F5FE8F4B98423ED949
S1133750029B012B01D0002F00D106270120FFF787
S113376076FD00230126019C09AD013C6B72E4B295
S1133770FF2C00D1AAE0814BA2009B68D358002BF8
S113378006D01A79324203D01A6899682800904703
S1133790013CE4B2ECE7019BB2689B009B58002B10
S11337A010D01A7905990A420CD01A68996809A8A8
S11337B09047002806D06B461B7904277373029B3D
S11337C0012BB3D1019B0133DBB20193A9E7FFF7CE
S11337D0ADFE6E4EB042BBD8FFF7BCFEB042B7D8C8
S11337E0FFF794FEB042B3D8029B012B00D0C0E097
S11337F00A2C00D9BBE02000FDF7B6F9060A0C1C20
S1133800849A777E2C6C7200002207AB1A702AE02F
S11338100322FAE75A4801F069FA012808D0002186
S1133820574801F0C5F9FFF7EBFE071E00D04DE73E
S11338300122EAE7524801F059FA042808D002218B
S11338404F4801F0B5F9FFF7F9FE071E00D03DE738
S11338500422DAE7072207AB1A7000225A70EA78CA
S11338609A702A79DA702300083B07A9022B03D83F
S11338706B798B71AB79CB716B78002B09D0012CF0
S113388007D9A8780222424B002853D01869024372
S11338901A613B4801F0B0F9002800D00327002C3E
S11338A04CD1FFF7ADFE071E00D00FE70027012023
S11338B0FFF7CDFC6B46314D1B7B0024AB73022319
S11338C009AE737201932B7BA3423CD80120FFF70E
S11338D0C4FCFBE6072207AB1A70063A5A70C2E72B
S11338E0072207AB1A70043AF8E7022207AB1A70F2
S11338F0013A1A715A71B6E70222012107AB1A7014
S11339001971F7E70222002607AB1A701C48013A26
S11339101A715E7101F0EAF90128A4D03100184847
S113392001F046F9FFF76CFE0700B0429BD0CDE6EC
S113393005226AE7186990431861AAE7012CB6D1F9
S1133940FFF77CFEAFE7AA68A3009B58002B0BD0BF
S11339501A7901990A4207D01A6899683000904789
S1133960002801D005276C730134E4B2ABE70327C8
S1133970ACE6002F00D0F1E63AE7C046A4020020EE
S113398000E007400040064040420F0080841E00D3
S113399000ED00E010B5064801F0A8F90023012865
S11339A003D00133042800D00A33180010BDC046E8
S11339B000E00740F7B5FF2403681C4A1D0A2540B0
S11339C01C40AB009F581A4A06009B5828000193DC
S11339D0FFF7E6FD00222100380001F08FF9019B7A
S11339E0A400E418842332795B05234352001A604F
S11339F0802372795B0523431A609023B2795B05B7
S1133A00234312011A60F2790A4B1C431304236006
S1133A10002A0AD0084B5B57002B06D01F22134004
S1133A201E3A9A401300054A1360F7BD5C66000015
S1133A3064660000000018186C66000000E100E0F5
S1133A40F8B5FF2405000368114A180A20401C40F9
S1133A5083009F580F4A9E58FFF7A2FD38002100AB
S1133A60012201F04BF96A682100380001F056F98F
S1133A7088232A7AA400A4195B05234392001A60C0
S1133A8098235B051C436B7A9B012360F8BDC046F9
S1133A905C6600006466000070B50C00002807D165
S1133AA0002C0FD170BD05000835FFF783FF2800F7
S1133AB003680133F7D1F3E7250020000C35FFF745
S1133AC0BFFF2C0023680133F6D1EBE7FF22030A82
S1133AD0134004499B0059580123104083404B6014
S1133AE07047C0465C660000FF22030A1340044985
S1133AF09B0059580123104083408B607047C04697
S1133B005C660000084B8200D258942310B5023240
S1133B105B0513431B78002B02D000F047FA10BD5D
S1133B2000F09AFAFBE7C0460C660000020080230E
S1133B300C325B0513431A78002AFCD001717047DC
S1133B4070B50D00084B8000C458200029001830BF
S1133B50FFF72EFB0328F8D0002801D00423237498
S1133B60207CC0B270BDC046B402002010B5104B1A
S1133B708000C458E37C002B05D0237C052B02D0A5
S1133B80237C042B0BD10B4B18589823821C5B0508
S1133B90134300221A7001F025F901236374A37CF6
S1133BA0002B03D020001830FFF7BFFA10BDC04629
S1133BB0B40200200C660000F0B589B005930EAB8A
S1133BC01B781700364A039383009A580600019223
S1133BD0344ACDB29C58002207AB1A80A37C0493CC
S1133BE00123E374A374039B5A4253418A0ADBB250
S1133BF002921E2A02D1CAB294460D0A029A6D009C
S1133C00EDB200211E2A02D08F4200D159B20D43D9
S1133C10029907AB1D7001221E2902D162465A7017
S1133C200222A360E26029000198FFF77FFF0F9949
S1133C303000FFF785FF237C002B0CD1002F0AD026
S1133C40059BA760E36039780198FFF76FFF0F9930
S1133C503000FFF775FF237C002B17D1039B002B4B
S1133C6014D1029B1E2B01D0002F0FD0002301275B
S1133C70A3600198E76001F0A3F839000198294393
S1133C80FFF754FF0F993000FFF75AFF0023E37446
S1133C906B46207C1B7CC0B2A37409B0F0BDC04647
S1133CA00C660000B4020020F7B583000193184BA2
S1133CB08200D55807000E000124002D26D1154B93
S1133CC02900D358300024220193FCF701FD300071
S1133CD029001830FFF722FA3800FFF773FC019827
S1133CE001F024F80A4BBA00D6501F220A4BDB5DC0
S1133CF0134022009A40094B1A609C22019B5205F2
S1133D0002331343802274742C001A702000FEBD09
S1133D10B40200200C6600001066000000E100E020
S1133D20F7B50E4E8400A359002701930C4B0500F0
S1133D30E2589C2302325B0513431F70FFF747FCD4
S1133D40084B01985A5D1F231A401E3B9340064AB4
S1133D501830D367FFF7F9F9A751F7BDB402002073
S1133D600C6600001066000004E100E00A4B8000CD
S1133D7070B5C5584B686A690C0093420BD0074B69
S1133D80C658FFF7E7FB002301006268300000F02B
S1133D90DBFF63686B6170BDB40200200C66000039
S1133DA0F0B587B004920593334A0FAB1E788300B5
S1133DB09C580391627C0700002A03D103202074DD
S1133DC007B0F0BD002E01D11E220E922B4A03999A
S1133DD0D55800233800E360A36023742360637420
S1133DE0A674FFF7C3FF90231021AA1C5B0513439D
S1133DF019708423E91C5B050B4302211970982375
S1133E005B05134302934023029A2800137000F0C9
S1133E10D7FF039B049A19880E9B38000193012352
S1133E200093059BFFF7C8FE0D9B002B17D0237C46
S1133E30002B11D10C9B2800A3600D9BE3600C9B0D
S1133E401978FFF773FE002E03D00E993800FFF7A0
S1133E5077FE207CC0B2B3E7237C042BF9D1002386
S1133E600126029A1370EB785B09334202D02800D2
S1133E7000F0B8FF6674ECE7B40200200C660000A2
S1133E80F0B589B0079311AB1B780692384A0293B8
S1133E9083009C580591627C0600002A03D103200C
S1133EA0207409B0F0BD029A002A01D11E3210928A
S1133EB0304A0027D5580E9B059923600F9B30008C
S1133EC063606B461B7AE760A3742774A76067740A
S1133ED0FFF74CFF9023AA1C5B051A4310231370B1
S1133EE0842304925B05EA1C134302221A7098236C
S1133EF0AA185B051A43402328001370039200F0AC
S1133F005FFF059B069A1988109B00970193300068
S1133F10079BFFF751FE227CD2B2BA4218D1049B10
S1133F200F991A708C235B0501290ED1AA1C134327
S1133F3008221A702B79029B002B03D010993000B1
S1133F40FFF7FEFD207CC0B2ABE7A91C0B43F0E7F2
S1133F50237C042BF6D10126039B1F70EB785B09AD
S1133F60334202D0280000F03DFF6674EAE7C04601
S1133F70B40200200C6600001FB501240394089CC1
S1133F800294079C0194069C0094FFF709FF04B077
S1133F9010BD1FB501240394089C0294079C01944E
S1133FA0069C0094FFF76CFF04B010BD244B70B561
S1133FB08400E5588423EA1C5B05134302221A702B
S1133FC09023A9185B050B431B78EA78DBB29206B1
S1133FD01DD5942252050A431278002A17D0194A93
S1133FE0A458012B14D1EA781A4204D00433237460
S1133FF0FFF7BCFD0BE0E368013BE360002BF7D067
S1134000A36828005A1CA2605978FFF78FFD70BD81
S11340106268013A6260002A06D08C235B05012A9B
S11340200AD00B43002209E0FFF7A0FD23685A1CC5
S113403022602A791A70EAE708220B431A70F5E71E
S11340400C660000B4020020C31C84204005184301
S11340500223037070470000902149050A00F0B55F
S11340608C4B07008000C55889B0EB1C0193EB789A
S1134070EE78DBB20793F3B20693AB1D1A43944672
S113408012789826D2B20592942252051A43824C91
S1134090127876050459A81CD2B233430190084320
S11340A002921A780178D2B2C9B2049102990390AB
S11340B0002931D0059900290DD01023624628002B
S11340C01370FFF7C1FF236B002B53D00121626BE8
S11340D0F8B298474EE0002A1ED0402228001A70F9
S11340E0FFF7B2FF23002C331B78002B02D1019A77
S11340F016433370236B002B03D0F8B2626B80211C
S11341009847E37D002B04D0200080211830FFF76E
S11341101EF80A2323702DE0069B28009E1101231C
S11341201E40FFF791FF0122079B1B11134223D06E
S11341309023EA1C5B05134310221A70002E0ED044
S1134140EB785B07DB0F46D1039A1370236B002BCC
S113415003D0F8B2626B042198472B790AE0082354
S113416023702C342278002A04D1982301995B050A
S11341700B431A7009B0F0BD002EE1D1049B012B52
S113418052D1EB78049A13422FD0039B1E702B79E3
S113419023002C331B78002B09D1029B002B06D162
S11341A09823019A5B0513436A46127A1A70236BAB
S11341B0002B03D0F8B2626B08219847A37D002B33
S11341C004D0200008211830FEF7C1FF00236360EB
S11341D0E3602375CEE71023039A1370236B002B3F
S11341E003D0F8B2626B022198476368002B4FD06A
S11341F028008022E3680C305205197802431078B5
S11342000028FCD029710133E3606368013B6360DB
S11342106368002BAED1E3602375236B002BA9D018
S1134220F8B2626B102154E72B79A268DBB2002A42
S11342302CD022691370236901332361A368013BE5
S1134240A360A368002B95D1029B002B13D12300FC
S11342502C331B78002B06D19823019A5B0513435A
S11342606A46127A1A70E37D002B04D020002021C4
S11342701830FEF76CFF002363752361236B002B5A
S113428000D177E7F8B2626B202122E7072341E7E8
S113429006233FE70C660000B402002084235B057C
S11342A003431A7800239A4207D0802301305B0528
S11342B018430378012B02D0024B18007047024BBD
S11342C0FBE7C04680841E0000127A0010B50D4B37
S11342D0821D13431B780400DBB2002B0FD0012B8B
S11342E007D1FFF7DBFF084B08341C432378D84081
S11342F010BD0020022BFBD1044B1868F8E70448DA
S1134300F6E7C0460000081100009010B802002033
S1134310006CDC020B4B821D13431B78DBB2012BB8
S113432006D0181E0CD00320022B09D0052007E06C
S1134330802301305B051843007843425841013023
S11343407047C0460000081102009C2318325B0528
S1134350134380221A700022064B03431A70064A44
S1134360063002431078C0B20028FBD1034B0B6027
S11343707047C0460000081300000811006CDC02FE
S1134380F8B504000D0017001E00FFF7C3FF012855
S113439023D1002D25D08023621C5B0513431D709F
S11343A0842302225B0523431A702200104B083237
S11343B013437A00D2B21A7040220E4B23431A7070
S11343C00D4B06341C432378012BFCD1002D0DD159
S11343D00A4B3B4100203360F8BD0228DBD1012D9C
S11343E0D9D131002000FFF7AFFFD4E7044BF0E749
S11343F000009010000008130000081180841E00C3
S113440000127A000A4A10B514680123002C0CD05B
S11344108024084B03431C70074B06301843037871
S1134420022BFCD113680B600023180010BDC0469A
S1134430B802002000000813000008119C23C901E1
S11344405B051843C9B201707047942349015B05A9
S11344501843C9B20170704770B506680C0030008B
S11344602049FCF78BFB1F4905003000FCF70CFCCE
S11344700E00E12130000901FCF780FBE121E0801E
S113448009013000FCF700FC0E003C213000FCF771
S113449075FB3C2120813000FCF7F6FB6E22A172F3
S11344A00321114BFF322380238895420AD80F49F8
S11344B09B0700D10E490123CA5CAA420CD3638036
S11344C0A58070BD01339BB223800B40AD1A5A42C4
S11344D05A416E32FF32E7E70133AD1A0D2BEBD1AF
S11344E0EEE7C04680510100B207000038660000C4
S11344F0116600000188114A03008A1830B50020B3
S1134500812A19D85A88541E0B2C15D89C88651EEC
S11345101E2D11D8DD88172D0ED81D893B2D0BD8E3
S11345209B7A3B2B08D88B0701D1054B00E0054B48
S11345309B5CA3424041C0B230BDC0464EF8FFFF71
S1134540116600003866000070B5134D8388028838
S11345505B196E25FF35554344885B1995085B1933
S11345600E4D6600755B5B19920710D00B600A68EC
S11345700B4BC4885343827A00899B18E1221201B1
S113458062439B183C2242439B180B6070BD022C73
S1134590ECD8013BEAE7C0464A05F5FF1E66000079
S11345A0805101008023084A1B0212689A420AD1F2
S11345B00300A0201033400518430368002B02D1E8
S11345C00133FF3303607047B802002001008022EA
S11345D010B5002301245205103111430C600B6007
S11345E090214360490504601C3001430B6088211D
S11345F0490501430B6084214905014310430B60C5
S1134600036010BD0200902314325B0513430022A3
S11346101A604260103201601A60704703680B60D0
S113462070470000104B820070B5D55880220400FA
S11346300E4B92051A602800FFF7C8FF2800FFF709
S1134640B1FF0B4B1F261A5D0123180009493240A4
S1134650095DC025314090408B40074A6D005051A0
S113466053511060136070BD486600003C80845E46
S11346704C6600004D66000000E100E0F7B500273D
S1134680114B8000C65808000D000197FFF732FF58
S11346900400B84216D001A92800FFF755FF3800DE
S11346A0FEF77AFF010080200002814206D0FCF769
S11346B065FA01000198FCF761FA01900199300054
S11346C0FFF7A0FF2000FEBD48660000F7B50025F7
S11346D0124B8000C4580E00200001A90195FFF779
S11346E09DFF2800FEF758FF050080200002854248
S11346F00ED00B4B290004341C43FCF73FFA276807
S1134700019C29004443B8B2FCF738FA24180194F8
S1134710310001A8FFF7A0FEF7BDC04648660000BF
S113472000007810F0B50026184B800085B0C458FE
S113473008000F0001920396FFF7DCFE0500B0426B
S113474003D10025280005B0F0BD03A93800FFF708
S1134750FBFE30002768FEF71FFF010080200002E7
S1134760814206D0FCF70AFA01000398FCF706FA26
S11347700390039BBB42E4D3A36088231C345B05F2
S11347801C43019B9B002360DCE7C0464866000095
S1134790044B8000C25888231C325B0513438900F4
S11347A01960704748660000054B8000C258882392
S11347B014325B0513431868431E9841C0B2704716
S11347C0486600006B46E0221B78D2021B041340AB
S11347D009071943014BC0180160704744100000D9
S11347E0084B8200D258902310B503325B05134363
S11347F01B78002B02D000F013F910BD00F078F9FB
S1134800FBE7C046506600000C4B0D4A9C2180001B
S1134810C3588258002003324905114310B518715A
S11348200870942149050A4310701A7F824203D00C
S113483020331800FEF779FC10BDC046C0020020EA
S113484050660000F7B50C0006001B4B30228700B1
S113485000212000FD58FBF73BFF3000FEF7A8FEC7
S1134860FEF778FE2060280000F0D9FA200000212D
S11348702030FEF753FCEB1C01939023EA1C5B05EC
S11348801343102228001A70032100F009FB2800AA
S1134890002100F02AFB094BFC50094B9A5D1F23B1
S11348A01A401E3B9340074A13609823019A5B0504
S11348B0134340221A70F7BD50660000C002002066
S11348C05466000000E100E0F8B50D4E84000D4B85
S11348D0A7590500E05800F0A2FA38002030FEF78E
S11348E034FC094B28005A5D1F231A401E3B934099
S11348F0064AD367FEF761FE0023A351F8BDC04604
S1134900C0020020506600005466000004E100E08C
S11349100A4B800070B5C658094B0C00C3581500EB
S113492030001A68096800F081FA2860A379300021
S11349306279217900F0C6FA70BDC0465066000065
S1134940C0020020F7B51E4A83009C580600227955
S11349500420002A16D11B4A9D58002903D001AA1D
S11349603000FFF7D5FF982300214020EA1C5B05A7
S113497013431970187027698F4204D13000FFF770
S113498043FF0020FEBD0123237194235B05A16135
S11349902B431B780720002BF4D0A368191E02D0E8
S11349A019780133A360A9712369013B2361A369C9
S11349B00133A3619C235B051A4380231370E0E752
S11349C0C002002050660000F8B5134F134C850058
S11349D02C59ED590127069E2777A2602661E360D2
S11349E06661FFF7AFFF061E14D12000079920303F
S11349F0FEF7DEFB0328F8D000280BD09C22002110
S1134A00EB1C52051A43217111709422032652059E
S1134A10134319703000F8BD50660000C002002036
S1134A2010B51E4B8200D3581979002934D01C4983
S1134A3051585A69002A11D09C2252050A4312780F
S1134A40002A0BD08A79DC68D2B2002C03D0227001
S1134A50DA680132DA605A69013A5A611A69002A3D
S1134A6012D0942252050A431278002A0CD09A6874
S1134A70141E02D0147801329A608C711A69013ABA
S1134A801A619A6901329A611A69002A04D15B6930
S1134A90002B01D1FFF7B8FE10BDC046C0020020B4
S1134AA050660000104A8000815800220F4B10B558
S1134AB0C3580331581CC2779C2040050843DA626E
S1134AC01A701A835A629A621A630270942040051B
S1134AD001430A701A0038321278002A03D0181DD4
S1134AE00121FEF734FB10BD50660000C002002017
S1134AF070B5254B8200D358591CC97F002941D079
S1134B0022495258D96A002916DB942149051143D8
S1134B100978002910D0596A1C7F002905D0DD6A64
S1134B20002D02DD0C78013159629471D96A013982
S1134B30D962596B01315963D96A002905DA942184
S1134B40D41C4905214300240C70196B002911DD84
S1134B509C2149051143097800290BD09279996A5F
S1134B60D2B2002903D00A709A6A01329A621A6B8F
S1134B70013A1A63DA6A002A04DC1B6B002B01DC9D
S1134B80FFF790FF70BDC046C002002050660000D1
S1134B90012903D0032909D0002006E094235B05F2
S1134BA018430078431E9841C0B270478423F6E747
S1134BB0431C034849011843C9B201707047C046F9
S1134BC000008812831C9420490140051843C9B28F
S1134BD001707047831C034889011843C9B20170EE
S1134BE07047C04600000813831C8C20C900400590
S1134BF01843C9B201707047F7B5384EC21C16434A
S1134C0032780B7804000D00D2B20120072B0FD8A4
S1134C101800FBF7A9FF041A2D0E1A2D2D47304B4F
S1134C2001341C43002323703378012BFCD1002072
S1134C30FEBD0320012AFBD1294B01341C43402330
S1134C4023703378042BFCD1F1E70021012B01D030
S1134C5004230221327803209342E9D12000FFF794
S1134C60A7FF04211F4A13698B43136130BFDEE79A
S1134C700227BB4207D100270B79BB4203D04979F5
S1134C802000FFF7A7FF184B01341C43277033782B
S1134C90144ADBB20193019B01330193042311698C
S1134CA00B43E2E70421104B621C1A4311706A782B
S1134CB0A11C0B431A706B78002B06D1AB78002B28
S1134CC003D0E9782000FFF77DFFAB79002BDED01D
S1134CD0E9792000FFF788FFD9E7C04600003010CB
S1134CE00000881200ED00E000001010C31C024810
S1134CF018430078C0B2704700003010143080238D
S1134D00012A04D18A401B05184302607047DB0462
S1134D10184301238B40DB430360F7E701238B40F7
S1134D20002A01D0436070478360FCE70023C2225D
S1134D30037043708370C37043718371C3710372D2
S1134D4042728372C3727047F0B5002487B0039334
S1134D50FA23012625009B005343049005910293F6
S1134D60019476420027154B0598DB195988A94010
S1134D70FBF704FF029B029AC31A824200D9131A5A
S1134D80B34204D20D4A0195D45D1E1E02D00437ED
S1134D90C82FE8D10135032D01D0002EE2D1039BA9
S1134DA0002B00D01E603F22019B14409B011C433A
S1134DB0049BE4B25C7007B0F0BDC0466E660000B0
S1134DC0942302305B0503431B78002B05D0882312
S1134DD05B05184304230370704780231B051843A5
S1134DE03023F8E79422811C52050A4312780223E7
S1134DF0012A0BD18023DB040B43CE321A708022AC
S1134E002021D200033003780B4001D118007047F1
S1134E10013A002A01D0C046F5E70923F6E7042346
S1134E20C37000238370437003717047F0B5130B94
S1134E3089B00124049308230025644202931B19BA
S1134E400790059106920193022700266B1C039399
S1134E50039906987943FBF791FE059B834206D399
S1134E601B1AA34203D21C0004900296019501363A
S1134E707F00092E0DD1072D0ED17022019B0498BD
S1134E801B011340029A1343079ADBB2537009B013
S1134E90F0BD002CDCD1F0E7039D002CD4D1ECE76D
S1134EA0842310B50224C21C5B0513434A0022402C
S1134EB01A70902300195B0518431023C900194088
S1134EC0017010BD10B58C2403306405C90004437F
S1134ED0C9B221708821920049050143D2B20A70F7
S1134EE0802252051043037010BD8023012202303A
S1134EF05B0503430A401A708C235B05184308239F
S1134F00890019400170704704FEFF1F0D09506F9E
S1134F10776572646F776E20636F6D6D616E642068
S1134F206162616E646F6E65642E20424D58303547
S1134F30352064697361626C65640A000D09506F01
S1134F40776572646F776E20636F6D6D616E642038
S1134F506162616E646F6E65642E204C3347443227
S1134F6030482064697361626C65640A000D0950FD
S1134F706F776572646F776E20636F6D6D616E64B9
S1134F80206162616E646F6E65642E2054435333F6
S1134F90343732352064697361626C65640A001BBE
S1134FA05B306D1B5B343B34316D1B5B313B333702
S1134FB06D0D496E76616C696420737570706C79DF
S1134FC020766F6C74616765205B25645D206D5687
S1134FD0211B5B306D0A000D0930782530327820B2
S1134FE02D2D3E205B3078253032782030782530E6
S1134FF03278203078253032785D0A000D09307817
S113500025303278202D2D3E203078253032780A14
S1135010000D09307825303278202D2D3E202D2D9D
S11350202D2D0A000D0A0925642F2564207375634C
S11350306365737320726174652E0A000D0925641B
S11350402F256420737563636573736573206D61C5
S11350507463686564207265662E2076616C75657C
S1135060206F66203078253032782E0A000D09250D
S1135070642062616420636F6D6D616E64732E0AD7
S11350800A000A0A0A0D426F6F74696E672057613D
S113509072702C20696E20332E2E2E2000322E2E7C
S11350A02E2000312E2E2E0A0D000D0A0A0A0A5B4C
S11350B0202A090909095709610972097009287226
S11350C065762E2062290909092A205D0A000D5BF4
S11350D020200909090920202020202043616D6235
S11350E07269646765202F2050687973636F6D70EF
S11350F06C61622020200909090920205D0A0A0048
S11351000D09537570706C793D25646D562C0944F6
S1135110656661756C7420546172676574205265AC
S113512061642052656769737465723D3078253017
S113513032780A000D094932433D25646B622F73AE
S11351402C095350493D25646B622F732C0955413A
S113515052543D25646B622F732C0949324320500D
S1135160756C6C2D55703D25640A0A000D09534970
S11351704D2D3E53434743363D3078253032780930
S1135180095254432D3E53523D307825303278092C
S1135190095254432D3E5453523D307825303278D1
S11351A00A000D094D43475F43313D3078253032C5
S11351B0780909094D43475F43323D307825303241
S11351C07809094D43475F533D3078253032780ADA
S11351D0000D094D43475F53433D30782530327805
S11351E00909094D43475F4D433D307825303278F6
S11351F009094F53435F43523D3078253032780AD2
S1135200000D09534D435F504D50524F543D30787B
S113521025303278090909534D435F504D435452A8
S11352204C3D30782530327809095343422D3E53A2
S113523043523D3078253032780A000D09504D43F1
S11352405F52454753433D30782530327809090988
S113525053494D5F53434743343D307825303278CA
S1135260095254432D3E5450523D30782530327803
S11352700A0A000D0925647320696E2052544320E4
S113528048616E646C657220746F2D646174652C62
S113529009256420506D6772204572726F72730A1B
S11352A0000D53656C6563743A0A000D2D20276167
S11352B0273A207365742064656661756C74207385
S11352C0656E736F722E0A000D2D202762273A2017
S11352D0736574204932432062617564207261747D
S11352E0652E0A000D2D202763273A20736574204C
S11352F0535049206261756420726174652E0A00FE
S11353000D2D202764273A2073657420554152548B
S1135310206261756420726174652E0A000D2D206F
S11353202765273A207365742064656661756C741B
S11353302072656769737465722061646472657351
S1135340732E0A000D2D202766273A207772697480
S113535065206279746520746F2073656E736F7253
S11353602E0A000D2D202767273A207365742064C8
S1135370656661756C74205353535550504C592EC7
S11353800A000D2D202768273A20706F7765726414
S11353906F776E20636F6D6D616E6420746F206132
S11353A06C6C2073656E736F72732E0A000D2D2062
S11353B02769273A207365742070756C6C2D75709D
S11353C020656E61626C652076616C75652E0A00DD
S11353D00D2D20276A273A2072657065617420724A
S11353E06561642072656720307825303278206FDB
S11353F06E2073656E736F72202325642E0A000D70
S11354002D20276B273A20736C65657020756E74A8
S1135410696C2072657365742E0A000D2D20276C4B
S1135420273A2073656E64207265706561746564E3
S11354302062797465206F6E204932432E0A000D74
S11354402D20276D273A2073656E64207265706580
S1135450617465642062797465206F6E20535049CD
S11354602E0A000D2D20276E273A20656E61626C8E
S113547065205353535550504C592E0A000D2D207E
S1135480276F273A2064697361626C652053535314
S11354905550504C592E0A000D2D202770273A20C4
S11354A073776974636820746F20564C5052206D72
S11354B06F64652E0A000D2D202772273A2073771A
S11354C06974636820746F2052554E206D6F646553
S11354D02E0A000D2D202773273A20706F776572EE
S11354E020757020616C6C2073656E736F72732EFF
S11354F00A000D2D202774273A2064756D702070E2
S1135500726F636573736F722073746174652E0AAE
S1135510000D2D202775273A2073657420493243E6
S113552020616464726573732E0A000D2D20277840
S1135530273A2064697361626C6520535744206183
S11355406E64207370696E20666F72203130207330
S11355506563732E0A000D2D20277A273A2064757F
S11355606D7020616C6C2073656E736F7273206450
S11355706174612E0A000D2D20272C273A207368B0
S11355806F772063757272656E742073656E736FC6
S1135590722072656164696E672E0A000D456E742F
S11355A065722073656C656374696F6E3E20000DCF
S11355B00953656C6563743A0A000D092D2027317F
S11355C027204144584C33363209090928307830B1
S11355D0302D2D30783244293A20312E3656202D64
S11355E02D20332E35562028636F6D70696C6564E9
S11355F0206F757429200A000D092D2027322720D9
S1135600424D58303535616363656C200909283093
S11356107830302D2D30783346293A20322E3456C6
S1135620202D2D20332E36562028636F6D70696C23
S11356306564206F757429200A000D092D20273315
S11356402720424D583035356779726F090909288A
S1135650307830302D2D30783346293A20322E34AC
S113566056202D2D20332E36562028636F6D7069F9
S11356706C6564206F757429200A000D092D20279C
S1135680342720424D583035356D616709090928A2
S1135690307834302D2D30783532293A20322E347A
S11356A056202D2D20332E36562028636F6D7069B9
S11356B06C6564206F757429200A000D092D20275C
S11356C03527204D4D4138343531510909092830E9
S11356D07830302D2D30783331293A20312E393538
S11356E056202D2D20332E36560A000D092D202745
S11356F03627204C50533235480909092830783070
S1135700382D2D30783234293A20312E3756202D39
S11357102D20332E36562028636F6D70696C6564B6
S1135720206F757429200A000D092D2027372720A2
S11357304D41473331313009090928307830302D53
S11357402D30783131293A20312E393556202D2DFE
S113575020332E36562028636F6D70696C65642083
S11357606F757429200A000D092D20273827204839
S113577044433130303009090928307830302D2D38
S113578030783146293A20332E3056202D2D2035BD
S11357902E30562028636F6D70696C6564206F75B8
S11357A07429200A000D092D202739272053493751
S11357B030323109090928307830302D2D307830D5
S11357C046293A20312E3956202D2D20332E365697
S11357D02028636F6D70696C6564206F757429206F
S11357E00A000D092D20276127204C33474432300D
S11357F04809090928307830462D2D307833392965
S11358003A20322E3256202D2D20332E3656202883
S1135810636F6D70696C6564206F757429200A006C
S11358200D092D2027622720424D453638300909BD
S11358300928307841412D2D30784638293A2031D5
S11358402E3656202D2D20332E36562028636F6D8C
S113585070696C6564206F757429200A000D092D28
S11358602027642720544353333437323509090938
S113587028307830302D2D30783144293A20322E9A
S11358803756202D2D20332E33562028636F6D700C
S1135890696C6564206F757429200A000D092D2038
S11358A027652720534934373035090909286E2FD5
S11358B061293A2020202020202020322E37562013
S11358C02D2D20352E35562028636F6D70696C653B
S11358D064206F757429200A000D092D202766277E
S11358E02050414E31333236090909286E2F61297F
S11358F02028636F6D70696C6564206F757429204E
S11359000A000D092D2027672720434353383131DE
S113591009090928307830302D2D30784646293A47
S113592020312E3856202D2D20332E365620286334
S11359306F6D70696C6564206F757429200A000DA1
S1135940092D2027682720414D4738383334090969
S11359500928307830302D2D3F293A203F56202D0C
S11359602D203F562028636F6D70696C6564206F2D
S1135970757429200A000D092D20276A2720415318
S11359803732363209090928307830302D2D3078F5
S11359903242293A20322E3756202D2D20332E36EE
S11359A0562028636F6D70696C6564206F75742967
S11359B0200A000D092D20276B272041533732364A
S11359C03309090928307830302D2D3078324229B6
S11359D03A20322E3756202D2D20332E36562028AD
S11359E0636F6D70696C6564206F757429200A009B
S11359F00D09456E7465722073656C656374696F17
S1135A006E3E20000D09496E76616C6964207365F1
S1135A106C656374696F6E202725632720210A0053
S1135A200D0A09536574204932432062617564206C
S1135A307261746520696E206B6270732028652E14
S1135A40672E2C20273030303127293E20000D0AC4
S1135A500949324320626175642072617465207360
S1135A60657420746F202564206B622F73000D0A07
S1135A700953657420535049206261756420726132
S1135A80746520696E206B6270732028652E672E02
S1135A902C20273030303127293E20000D0A0953AD
S1135AA05049206261756420726174653A202564EE
S1135AB0206B622F73000D0A0953657420554152FF
S1135AC0542062617564207261746520696E206B74
S1135AD06270732028652E672E2C202730303031D9
S1135AE027293E20000D0A09554152542062617550
S1135AF06420726174653A202564206B622F730000
S1135B000D0A09456E74657220322D6E7962626CDD
S1135B1065207265676973746572206865782061B1
S1135B206464726573732028652E672E2C202733D6
S1135B306527293E20000D0A09456E746572656467
S1135B40205B3078253032785D2E0A0A000D0A0970
S1135B50456E7465722049324320616464722E205C
S1135B6028652E672E2C202730662729206F722067
S1135B702739392720666F7220535049203E200070
S1135B800D0A09456E7465726564205B30782530B2
S1135B9032785D2E0A000D0A09456E74657220681C
S1135BA06578206279746520746F2073656E642053
S1135BB028652E672E2C2027306627293E20000DCD
S1135BC00A09535049207772697465206661696CCB
S1135BD065642E204144584C333632204469736145
S1135BE0626C6564000D0A09493243207772697456
S1135BF065206661696C65642C206572726F722021
S1135C0025642E0A0A000D0A094F766572726964CA
S1135C1065205353535550504C5920696E206D568E
S1135C202028652E672E2C20273138303027293E36
S1135C3020000D0A094F766572726964652053531A
S1135C40535550504C592073657420746F2025644B
S1135C50206D56000D0A094E4F54453A204669728C
S1135C60737420706F7765722073656E736F7273CF
S1135C7020616E6420656E61626C65204932430A5E
S1135C800A000D0A0944656661756C742070756CB0
S1135C906C757020656E61626C652076616C7565EB
S1135CA020696E206B696C6F4F686D732028652EB8
S1135CB0672E2C20273030303027293E20000D0A53
S1135CC00949326350756C6C757056616C7565204A
S1135CD073657420746F2025640A000D0A094175E8
S1135CE0746F2D696E6372656D656E742066726F74
S1135CF06D20626173652061646472657373203022
S1135D0078253032783F205B273027207C202731CC
S1135D10275D3E20000D0A094368756E6B2072658D
S1135D2061647320706572206164647265737320AA
S1135D3028652E672E2C20273127293E20000D0AA6
S1135D40094368617474793F205B273027207C20E5
S1135D502731275D3E20000D0A09496E7465722DB6
S1135D606F7065726174696F6E207370696E206400
S1135D70656C617920696E206D696C6C697365630B
S1135D806F6E64732028652E672E2C2027303030E8
S1135D903027293E20000D0A095265706574697424
S1135DA0696F6E73207065722061646472657373C9
S1135DB02028652E672E2C20273030303027293EAE
S1135DC020000D0A094D6178696D756D20766F6C40
S1135DD07461676520666F722061646170746976AE
S1135DE06520737570706C792028652E672E2C20C1
S1135DF0273030303027293E20000D0A09526566CD
S1135E006572656E6365206279746520666F7220C1
S1135E10636F6D70617269736F6E732028652E678E
S1135E202E2C2027336527293E20000D0A095265B0
S1135E3070656174696E672064657625642040200E
S1135E403078253032782C20726570733D25642CAF
S1135E502070756C6C3D25642C2064656C61793D03
S1135E6025646D733A0A0A000D0A09536C6565705E
S1135E70696E6720756E74696C2073797374656DCF
S1135E802072657365742E2E2E0A000D0A0942795C
S1135E90746520746F2073656E642028652E672EE8
S1135EA02C2027463027293E20000D0A0952657010
S1135EB065746974696F6E732028652E672E2C20B3
S1135EC0273030303027293E20000D0A0953656EF3
S1135ED064696E67202564207265706574697469ED
S1135EE06F6E73206F66205B3078253032785D20CA
S1135EF06F6E204932432C2069326350756C6C7587
S1135F0070456E61626C653D25642C205353535576
S1135F1050504C593D25646D560A0A000D0A095328
S1135F20656E64696E6720256420726570657469A6
S1135F3074696F6E73206F66205B30782530327819
S1135F405D206F6E205350492C20535353555050AD
S1135F504C593D25646D560A0A000D0A0943616EC9
S1135F606E6F7420736574204932432061646472D7
S1135F706573733A20466972737420736574207470
S1135F8068652064656661756C74204932432064D9
S1135F9065766963652E0A000D0A09536574204904
S1135FA032432061646472657373206F6620746881
S1135FB0652073656C65637465642073656E736FC7
S1135FC07228652E672E2C2027314327293E200076
S1135FD00D0A095370696E6E696E6720666F7220D0
S1135FE03130207365636F6E64732E2E2E0A000D9C
S1135FF009446F6E652E0A0A000D0A09456E616236
S11360006C696E67204932432070696E732E2E2EA0
S11360100A000D0A09486578206F7220636F6E7656
