S02B00002F686F6D652F6364616C7A2F576172702D6669726D776172652F6275696C642F6B73646B312E312F92
S113000000060020310500005905000059050000D4
S113001000000000000000000000000000000000DC
S1130020000000000000000000000000590500006E
S11300300000000000000000590500005905000000
S11300405905000059050000590500005905000034
S11300505905000059050000590500005905000024
S1130060ED30000059050000F7300000590500008C
S11300705905000059050000590500005905000004
S113008059050000590500005905000059050000F4
S1130090212B0000392B00005905000059050000F0
S11300A059050000590500005905000059050000D4
S11300B059050000590500005905000059050000C4
S1130400FFFFFFFFFFFFFFFFFFFFFFFFFE3DFFFFBB
S1130410054B0648033310B51B1A062B03D9044BAE
S1130420002B00D0984710BDA0FFFF1FA0FFFF1FA7
S1130430000000000648074910B5091A8910CB0FBF
S11304405918491003D0044B002B00D0984710BD15
S1130450A0FFFF1FA0FFFF1F0000000010B5074C06
S11304602378002B09D1FFF7D3FF054B002B02D0D3
S1130470044800E000BF0123237010BDA0FFFF1F4C
S113048000000000D44A0000094B10B5002B03D033
S11304900849094800E000BF08480368002B02D15E
S11304A0FFF7C8FF10BD064B002BF9D09847F7E7BC
S11304B000000000A4FFFF1FD44A00009CFFFF1FA0
S11304C000000000144B002B00D1124B9D4640222B
S11304D092029A1A924600218B460F461148124AFC
S11304E0121A00F0A5F90D4B002B00D098470C4BC5
S11304F0002B00D098470020002104000D000B4879
S113050000F0DEF800F01AF92000290002F0F4FCF3
S113051000F0E4F8000008000006002000000000DD
S113052000000000A0FFFF1FF401002009070000E5
S113053072B606480649074A02600A6002F0E0FD06
S113054002F020FE62B6FFF7BDFF000080E100E08C
S113055080E200E0FFFFFFFF00480047590500006C
S1130560F0B500258DB0041C00F04CF8234B061C9C
S11305705D576B1C0BD0211C201C01F059FB071E7E
S113058005D10021201C00F0EDFC002802D1301C14
S11305900DB0F0BD01230293194B201C03930A975D
S11305A002F096F900220690079104900591002329
S11305B0002D15D01000190001F0A2FB089009913C
S11305C0022D0FD100F084F8212303600A9B0193CC
S11305D0002B0DD10898099902F0CCF9061CD6E736
S11305E00892099302A800F069F80028EED1E9E71F
S11305F000F06EF80A9B01930360EBE700FEFF1F17
S1130600C84A00002B49420070B50300041C52087C
S11306108A423AD8002A37D000283FDB2649C6153B
S11306208A420BD88020000420423ED1002200E000
S11306300A005B00511C0342FAD0B61A5B025A0A44
S113064080237F3E1B041343F20725D480227010BD
S11306501921002600255B005204AC189C4202DCE0
S1130660A5181B1BB61801395B0052080029F4D1E8
S1130670002B02D0012301369E43FC239B059C469C
S113068076106644C005801970BD011C01F014F891
S1130690211C00F08FFCF7E75B00D7E7011C01F099
S11306A02BF9011C00F018FEEEE701225242B61AA3
S11306B0C4E7C046FFFF7F7FFFFF7F000020704735
S11306C010B5010000230022002000F0B7F910BD8E
S11306D0014B18687047C04604FEFF1F084B10B555
S11306E00400002B02D0002100F020FA054B18680A
S11306F0836A002B00D09847200002F0E3F9C0463B
S11307002D0B00001449000070B5094B094CE41A84
S1130710A41009D0084AA518AD00ED182B68013CB7
S11307209847043D002CF9D104F0DAF970BDC046B5
S1130730F84A0000FC4A0000FFFFFF3F70B50D4E71
S11307400D4D0024AD1BAD1005D0A300F3580134AA
S11307509847A542F9D104F0BDF9084E084D00248C
S1130760AD1BAD1005D0A300F35801349847A54242
S1130770F9D170BDF44A0000F44A0000F44A0000C4
S1130780F84A000010B5034B0100186800F0E4F8C3
S113079010BDC04604FEFF1F10B5034B01001868CE
S11307A000F090F810BDC04604FEFF1FF0B5050030
S11307B00F2A2FD90B0003439B0734D116000C00DA
S11307C00300103E350901352D01451927681F60C6
S11307D067685F60A7689F60E7681034DF60103364
S11307E09D42F3D10F239E43103685198919134076
S11307F0032B1AD91E1F0023B4080134A400CF58B8
S1130800EF500433A342FAD10324A643331D2240FC
S1130810C918ED18002A05D00023CC5CEC54013330
S11308209342FAD1F0BD0500F6E71A00F2E7C0469C
S1130830F0B5830743D0541E002A3FD0CEB2020045
S1130840032502E01A00013C38D3531C16702B42D6
S1130850F8D1032C2AD9FF220A40150215432A0491
S113086015430F2C14D927001A00103F3E090136F6
S113087036019E19156055609560D5601032964218
S1130880F8D10F2297431037DB191440032C0DD9EC
S11308901A00271FBE080136B6009E1920C2B242B4
S11308A0FCD1032297430437DB191440002C05D0F4
S11308B0C9B21C19197001339C42FBD1F0BD14005C
S11308C00300C6E730B500290FD004390B68002BAC
S11308D01EDB204B1A68002A05D08A4209D9086811
S11308E00C18A24216D04A60196030BD8B4203D85E
S11308F01A005368002BF9D1156854198C4214D08E
S113090010D808680C189C421CD04B605160ECE76E
S1130910C918DEE714685268A446604408604A6057
S11309201960E2E70C230360DFE709686D185119C9
S113093015609942D9D119685B688C466544156085
S11309405360D2E71C685B68A446604408604B604F
S11309505160CAE7BCFFFF1F032370B5CC1C9C4346
S1130960083405000C2C28D20C24A14227D8294E87
S1130970316800290AD00B681A1B04D437E01A68BE
S1130980121B20D519004B68002BF8D17368002B7B
S113099039D02100280000F03FF8431C0FD0032277
S11309A0C61C9643B04205D0311A280000F034F832
S11309B0431C04D0346033000AE0002CD5DA0C2345
S11309C000202B600DE00B2A0CD91A609B181C60C8
S11309D0180007210B301A1D8843821A01D0514296
S11309E0995070BD8B420AD05A684A60F0E70B2ACE
S11309F003D84A680B003260EAE70B00E5E70A0017
S1130A000B003260E4E70021280000F005F8706074
S1130A10BFE7C046BCFFFF1F002370B5064C0500AE
S1130A200800236002F050F8431C00D070BD236816
S1130A30002BFBD02B60F9E7F0010020F0B547460E
S1130A40CE4680B5354E83B0346805000F0091461C
S1130A509846002C40D063681F2B12DD304B002BCE
S1130A6059D08C20FFF78EFE041E54D03268002328
S1130A7002608822436030608350002D3AD1873A67
S1130A8019E0002D15D08822A05800282FD07832E4
S1130A90865849469A0082181160012199400E43F4
S1130AA08946802149004650802641469151022DB5
S1130AB00BD01D005A1C00200235AD0062602F517E
S1130AC003B00CBC90469946F0BD82224D465200BC
S1130AD081580D438550ECE7124C134B3460002BC6
S1130AE0B9D01B6801938823019AE250B3E70C4BF9
S1130AF0002B10D084204000FFF744FE00280AD0C9
S1130B008022002352008350043283508833E05003
S1130B1000266368BDE701204042D1E75000002071
S1130B2085070000C4FFFF1F00000000F0B5DE468B
S1130B30454657464E46E0B5444B85B01B68039086
S1130B408B469846002B4FD0404B5F469946424611
S1130B5088235568D3589A466C1E54D48023AD001C
S1130B6056195B00043D55449B460BE05346002B4D
S1130B7004D02B0080331B689F4205D0043E043D03
S1130B80013C40D3002FF1D143465B687268013BBE
S1130B90A34232D000237360002AEFD043465B683F
S1130BA001935346002B26D0012351465846A340B7
S1130BB0095819421FD08220514640000958029119
S1130BC019421DD12968039890474346019A5B68EE
S1130BD09A4203D14B461B684345CFD01B4BBB46BF
S1130BE01B689846002BAFD105B03CBC9046994693
S1130BF0A246AB46F0BD9047E7E743465C60CBE7CF
S1130C0028689047E1E7124B002BEDD043465B6820
S1130C10002B16D143461B68002BE5D04A461360CF
S1130C205346002B02D05046FFF7B6FD4046FFF76F
S1130C30B3FD4B461B6898464346002B00D086E71D
S1130C40D2E743461B68C1469846F5E750000020AA
S1130C5099070000002243088B4274D303098B4296
S1130C605FD3030A8B4244D3030B8B4228D3030C78
S1130C708B420DD3FF22090212BA030C8B4202D31A
S1130C801212090265D0030B8B4219D300E0090A42
S1130C90C30B8B4201D3CB03C01A5241830B8B424B
S1130CA001D38B03C01A5241430B8B4201D34B0334
S1130CB0C01A5241030B8B4201D30B03C01A524199
S1130CC0C30A8B4201D3CB02C01A5241830A8B421E
S1130CD001D38B02C01A5241430A8B4201D34B0207
S1130CE0C01A5241030A8B4201D30B02C01A52416B
S1130CF0CDD2C3098B4201D3CB01C01A524183091F
S1130D008B4201D38B01C01A524143098B4201D358
S1130D104B01C01A524103098B4201D30B01C01A83
S1130D205241C3088B4201D3CB00C01A52418308FD
S1130D308B4201D38B00C01A524143088B4201D32A
S1130D404B00C01A5241411A00D20146524110468A
S1130D507047FFE701B5002000F0F0F802BDC0467F
S1130D600029F7D076E7704703460B437FD400226F
S1130D7043088B4274D303098B425FD3030A8B422B
S1130D8044D3030B8B4228D3030C8B420DD3FF2295
S1130D90090212BA030C8B4202D31212090265D063
S1130DA0030B8B4219D300E0090AC30B8B4201D316
S1130DB0CB03C01A5241830B8B4201D38B03C01A5D
S1130DC05241430B8B4201D34B03C01A5241030BD4
S1130DD08B4201D30B03C01A5241C30A8B4201D385
S1130DE0CB02C01A5241830A8B4201D38B02C01A30
S1130DF05241430A8B4201D34B02C01A5241030AA7
S1130E008B4201D30B02C01A5241CDD2C3098B428B
S1130E1001D3CB01C01A524183098B4201D38B0108
S1130E20C01A524143098B4201D34B01C01A5241AB
S1130E3003098B4201D30B01C01A5241C3088B42F0
S1130E4001D3CB00C01A524183088B4201D38B00DB
S1130E50C01A524143088B4201D34B00C01A52417D
S1130E60411A00D201465241104670475DE0CA0F54
S1130E7000D04942031000D34042534000229C4614
S1130E8003098B422DD3030A8B4212D3FC2289011E
S1130E9012BA030A8B420CD3890192118B4208D3F4
S1130EA0890192118B4204D389013AD0921100E056
S1130EB08909C3098B4201D3CB01C01A524183096A
S1130EC08B4201D38B01C01A524143098B4201D397
S1130ED04B01C01A524103098B4201D30B01C01AC2
S1130EE05241C3088B4201D3CB00C01A524183083C
S1130EF08B4201D38B00C01A5241D9D243088B4292
S1130F0001D34B00C01A5241411A00D20146634634
S1130F1052415B10104601D34042002B00D5494298
S1130F20704763465B1000D3404201B5002000F0D7
S1130F3005F802BD0029F8D016E770477047C0468F
S1130F408446081C6146FFE71FB500F073FB0028C8
S1130F5001D40021C8421FBD10B500F005FB40427A
S1130F60013010BD10B500F065FB002801DB002046
S1130F7010BD012010BDC04610B500F05BFB002879
S1130F8001DD002010BD012010BDC04610B500F0E9
S1130F9011FB002801DC002010BD012010BDC0465B
S1130FA010B500F007FB002801DA002010BD012075
S1130FB010BDC046F0B5C6464E024702760A7B0A0B
S1130FC04400C50FF7004800984600B5240E2A00D7
S1130FD0DB00000EC90FBC468D4267D0221A002ADE
S1130FE000DCA5E000283AD1002F00D193E0511E87
S1130FF0002900D0BCE00124DB1B5A0146D59B012B
S11310009E09300001F040FD05388640844200DD31
S11310109DE0041B320020200134E240041BA64062
S113102033005E1EB341002413435A0704D00F2239
S11310301A40042A00D004335A0129D50134FF2C64
S113104000D181E02A009B015B0AE4B25B02E40563
S1131050580AD2072043104304BC9046F0BDFF2C2D
S1131060E3D080213800C904084384461B2A00DDEC
S113107082E020206146D140821A604690400200FE
S1131080501E82410A439B1A5A01B8D45A07CED142
S1131090DE082A00FF2C3AD1002E00D1AEE08023D6
S11310A0DB0333435B025B0AFF24CFE7211A0029E9
S11310B052DD002831D0FF2CB7D080203E00C00480
S11310C00643B4461B2900DDAAE020266046C8403A
S11310D0711A66468E4031004E1EB14101435B18C1
S11310E05901D3D50134FF2C00D187E0012278497E
S11310F01A405B080B40134397E7002C00D0A7E08D
S1131100002B00D0B6E03B1E62D100260022730201
S11311105B0AE4B29AE7140087E7002F4DD0481E1B
S1131120002857D1634401245A01AFD50224DDE7D6
S1131130002A24D1621CD2B2012ADEDDDE1B720138
S113114035D5FE1A0D005CE72A0000237EE7330044
S1131150604A241A134068E7002963D1611CC8B2AD
S113116001284EDDFF2949D063445B080C005CE78D
S1131170FF2A41D00A0079E701229B1A84E7002C58
S11311801DD0FF2822D08024E404524223431B2A8A
S113119000DD8AE01C002025D440AA1A93405A1E80
S11311A09341234362460400D31A0D0025E7002E21
S11311B000D026E700220024A9E70C0035E7002B25
S11311C04DD0D243002AEDD0FF28E0D16346FF245E
S11311D00D002AE7FF290FD0010073E7002B61D02F
S11311E0FF24002F00D120E780224146D203114280
S11311F002D0164200D13B00FF2416E7FF2400234F
S113120024E7002CEAD1002B58D0002F00D10CE7A2
S113121063445A0100D439E72E4A0C00134004E712
S113122001215CE7002C1ED1002B40D0C9430029CA
S11312300BD0FF2836D01B2947DC1C002026CC40CD
S1131240711A8B40591E8B4123436344040047E7C2
S1131250002B18D13B1E2DD00D00FF24E5E63B00EA
S113126004000D00E1E6FF281CD08024E404494278
S11312702343E0E7002F00D1D7E6DE1B72011FD520
S1131280FB1A0D00D1E6FF24002F00D1CDE6802209
S11312904046D2031042AFD01642ADD13B000D0000
S11312A0FF24C2E66346FF24BFE601237AE73B003E
S11312B00400BAE680260022F603F0E63B00B4E61A
S11312C0331E00D0E2E6002221E70123BDE7C04639
S11312D0FFFFFF7DFFFFFFFBF0B557464E46DE469E
S11312E04546E0B544024300C60F83B00F1C640AB0
S11312F01B0EB24653D0FF2B27D08022E400D20429
S113130014437F22524290469844002399469B46B8
S11313107D027800FB0F6D0A000E009324D0FF2895
S113132046D080230021ED00DB041D437F3847466F
S1131330381A4F460F43BF00B9463300009A874F0F
S113134053404A46BA5801939746002C4ED108237D
S11313509946F7339846FD3B9B467D027800FB0F88
S11313606D0A000E0093DAD1002D26D10020012150
S11313703300009A7A4F53404246101A4A460A43B1
S11313809200BA581D009746009B2C009A468B4643
S11313905B46022B31D15346FF21002438E0002C58
S11313A017D1042399460023984601339B46AFE79F
S11313B0FF20002D0BD10221DAE7280001F064FBA5
S11313C0431F9D4076235B42181A0021AFE7032197
S11313D0ADE7200001F058FB431F9C4076235B429D
S11313E01B1A9846002399469B4691E70C2399467D
S11313F0F3339846FC3B9B468AE7032B00D1A5E0D8
S11314005546012B00D081E00123002100242B400C
S11314106402C905600ADB070843184303B03CBCF7
S113142090469946A246AB46F0BD80240023E403CF
S1131430FF21EDE7FF210024EAE70123591A1B29C4
S113144066DD019A134000210024E1E78023DB03D9
S11314501C4238D01D4251D01C436402640A33003C
S1131460FF21D5E763016C01A3423BD21B26002177
S1131470013801251F0049005B00002F01DB9C425D
S113148001D81B1B2943013E002EF3D11C00631E0F
S11314909C410C4301007F310029CEDD630704D059
S11314A00F232340042B00D00434230103D501006F
S11314B02C4B80311C40FE290DDD0123019AFF21B4
S11314C013400024A4E78023DB031C436402640A62
S11314D03300FF219CE70123019AA401640AC9B2E5
S11314E0134095E71B1B1A260121C2E7009B8B467C
S11314F09A4600244CE76302E5D500258024E403E2
S11315002C436402640A009BFF2181E70195C1E733
S113151023002020CB40411A8C40611E8C411C4387
S1131520630704D00F232340042B00D00434630149
S113153005D50123019A01211340002468E7012302
S1131540019AA401640A1340002161E78023DB03AC
S11315501C436402640A5346FF2159E718490000FA
S113156058490000FFFFFFF770B5420045024E02E4
S11315704C00C30F6D0A120E760A240EC90F012007
S1131580FF2A06D0FF2C03D0A24201D1B54206D0D7
S113159070BD002DFCD1FF2CFAD1002EF8D18B4266
S11315A006D00120002AF3D12800451EA841EFE708
S11315B00020EDE7F0B5420045024C02C30F48009D
S11315C06D0A120E640A000EC90FFF2A1ED0FF28EE
S11315D021D0002A0AD16E426E41F6B200280FD102
S11315E0002C0DD10020002D09D005E0002801D1E8
S11315F0002C01D08B4211D0012158420843F0BD88
S1131600002EF7D0012001390843F8E7002DDED081
S113161002204042F3E7002CDBD0F9E78242EBDC06
S113162004DBA542E8D80020A542E8D20121581ED7
S11316300843E4E7F0B542004D024C004602760A46
S1131640120EC30F6D0A240EC90FFF2A16D0FF2CE9
S113165018D0002A0AD170427041C0B2002C15D0B3
S1131660002805D0012001390843F0BD002C13D017
S1131670994214D001205B421843F6E70220002E61
S1131680F3D1E4E70220002DEFD1E2E7002DE7D10A
S11316900020002EE9D0EDE7002DE9D1EAE7A242CF
S11316A006DCDFDBAE4203D80020AE42DAD3DCE74F
S11316B0012049420843D8E7F8B557464E46454607
S11316C0DE46E0B54702460088467F0A360EC40F60
S11316D0002E47D0FF2E24D0FB008027FF041F4399
S11316E0002399469A467F3E43465D025800DB0F2D
S11316F06D0A000E984643D0FF283BD0EB008025AE
S11317000022ED041D437F383618731C41469B4666
S11317104B46614013430F2B64D875489B00C35854
S11317209F46002F42D108239946063BFF269A463E
S1131730DAE74146022A28D0032A00D1CEE0012A62
S113174000D0ACE0114000200022CCB24002D2050F
S1131750400AE407104320433CBC90469946A24605
S1131760AB46F8BD002F15D104239946033B002650
S11317709A46B9E7FF200222002DC5D00322C3E711
S1131780002D19D100200122BEE70124FF220C40C4
S11317900020DBE7380001F077F97626431F9F40ED
S11317A000237642361A99469A469DE70C239946B9
S11317B0093BFF269A4697E7280001F065F9431F85
S11317C09D4076235B42181A00229DE78020002466
S11317D0C003FF22BAE73D005246ABE73D002100BB
S11317E05246A7E73B0C9C462A04120C2B0C14000F
S11317F0604665463F043F0C7C4342435D437B4364
S1131800270C9B18FF18BA4203D980235B029C461D
S1131810654424043A04240C121993015C1EA34168
S11318203F0C920E7D191A43AD0115432B0104D5CB
S113183001235E466A081D40154332007F32002AA8
S113184025DD6B0704D00F232B40042B00D0043577
S11318502B0103D53200274B80321D40FE2A94DC35
S11318600124A801400AD2B20C406FE78020C003D3
S1131870074207D0054205D128434002400A4446A6
S1131880FF2263E738434002400AFF225EE7012457
S1131890A31A1B2B05DD0C400022002056E75E46F0
S11318A0CBE72A002020DA40C31A9D402B005D1E9E
S11318B0AB4113435A0704D00F221A40042A00D024
S11318C004335A0104D5012401220C4000203DE7D1
S11318D001249B01580A0C40002237E78020012490
S11318E0C00328434002400A0C40FF222EE7C046B2
S11318F098490000FFFFFFF7F0B54F46D64646462D
S11319004400C0B5C20F47024802400A84466646F6
S11319107B0A4800C90F9A46240E1500DB00000E0E
S11319208946F600FF2800D18FE001214F464F4041
S11319303900914266D0221A002A00DC9DE000287A
S11319403DD1002E00D18BE0511E002900D0B5E01E
S113195001249B1B5A0144D59B019F09380001F0C7
S113196093F805388740844200DD96E0041B3A0072
S113197020200134E240041BA7403B005F1EBB4112
S1131980002413435A0704D00F221A40042A00D01B
S113199004335A0127D50134FF2C00D179E0012208
S11319A09B015B0AE4B22A405B02E405580AD207B1
S11319B0204310431CBC90469946A246F0BDFF2C20
S11319C0E0D08021C9040E431B2A7BDC3100202097
S11319D0D140821A9640721E96410E439B1B5A01B7
S11319E0BAD45A07D0D10122DF082A40FF2C33D1C0
S11319F0002F00D1A8E08023DB033B435B025B0A9A
S1131A00FF24D1E7211A00294CDD00282AD0FF2C1D
S1131A10B8D08020C00406431B2900DDAFE03000AD
S1131A202027C840791A8E40711E8E4106439B19A7
S1131A305901D6D50134FF2C00D185E001227A4921
S1131A401A405B080B4013439CE7002E00D070E75C
S1131A506BE73B1EC5D100227B025B0AE4B2A3E71D
S1131A6014008FE7002E4DD0481E002857D19B1933
S1131A7001245A01B5D50224E0E7002A25D1621CCD
S1131A80D2B2012A72DD9F1B7A0135D5F71A0D00F7
S1131A9064E7012200232A4086E73B00634A241AB4
S1131AA013406FE700296CD1611CC8B201284EDDD8
S1131AB0FF2949D09B195B080C0063E7FF2A41D03A
S1131AC00A0081E701269B1B89E7002C1CD0FF2814
S1131AD021D08024E404524223431B2A00DD96E0F3
S1131AE01C002025D440AA1A93405A1E9341234334
S1131AF0F31A04000D002DE7002F00D02EE700227A
S1131B000024A9E70C003DE7002B58D0D243002A5B
S1131B10EED0FF28E1D13300FF240D0032E7FF2986
S1131B2010D0010078E7002B6ED0FF24002E00D1E6
S1131B3028E780225146D203114203D06146114264
S1131B4000D13300FF241DE7FF2400232CE7002CE1
S1131B50E9D1002B63D0002E00D113E79B195A0161
S1131B6000D43EE7314A0C0013400BE7002C1ED191
S1131B70002B2FD1002E4FD033000D0002E7012699
S1131B8055E7002C1FD1002B43D0C94300290BD0AB
S1131B90FF2839D01B2944DC1C002027CC40791AAB
S1131BA08B40591E8B4123439B19040040E7002BB3
S1131BB01AD1002E24D180270022FF031BE7330013
S1131BC004000D00DEE6FF281ED08024E404494210
S1131BD02343DFE7002E00D1D4E69F1B7A0100D413
S1131BE037E7F31A0D00CDE6FF24002E00D1C9E635
S1131BF080225046D2031042A4D060461042A1D1A4
S1131C0033000D00FF24BDE63300FF24BAE60123B0
S1131C106EE733000400B5E6002700221CE733001A
S1131C20B0E60123C0E7C046FFFFFF7DFFFFFFFBD7
S1131C3042024B0240004900520A000E5B0A090EA0
S1131C40FF2803D00020FF2906D07047FE38002A61
S1131C50FBD10020FF29F8D11800431E9841F4E776
S1131C6070B5002830D0C317C4185C40C50F2000DD
S1131C7000F00AFF9E231B1A962B0DDC9622D21A23
S1131C8094402A006402640ADBB26402DB05600A41
S1131C90D2071843104370BD992B19DC9922D21A2C
S1131CA0002A29DD94402200144C1440510704D02A
S1131CB00F210A40042A00D00434620113D4A40181
S1131CC0640ADBB22A00E0E7002200230024DCE7F8
S1131CD005222100121AD140B922D21A9440621E60
S1131CE094410C43DAE7054B2A001C409F23A401CE
S1131CF01B1A640ADBB2C8E72200D5E7FFFFFFFB2B
S1131D00F0B557464546DE464E46E0B54C000E0358
S1131D1087B0834692461D008046360B640DCF0F74
S1131D20002C4FD06F4B9C4235D08023420F1B04B4
S1131D30F600134333439946C30098466A4B002682
S1131D409C460023644403932B031B0B9B466B00AC
S1131D50ED0F50465B0D01955ED0624A934253D01D
S1131D605A46D1008022400F120402430A4393468C
S1131D705246D1005C4A94460022634438006840CD
S1131D8084460290E41A16430F2E00D9B4E0574B50
S1131D90B6009B599F460300334399466CD10023F8
S1131DA09846023308260393CEE7CB464146039A6E
S1131DB00197022A65D1019B4A4C9C4600230022CC
S1131DC098466BE00300334399464ED0002E00D171
S1131DD0BCE1300000F058FE03000B3B1C2B00DD7F
S1131DE0ACE11D22D31A5A460100DA4008398E406C
S1131DF01300334399465B468B40984600233C4C82
S1131E000026241A03939FE751465A46114329D1C9
S1131E10002293460232B1E7594601431ED05B4685
S1131E20002B00D19EE1584600F02EFE03000B3B30
S1131E301C2B00DD8FE102005946083A91408B4685
S1131E401D21CB1A5146D9400B0059460B4351462C
S1131E509B469140264B00221B1A8FE70023012248
S1131E609B468BE75146032288E7002398460133BB
S1131E7004260024039367E70323B14603930C2647
S1131E8062E7032A00D15CE2019B012A00D0E4E16D
S1131E9013409C460023002400229846002112038C
S1131EA0130B0A0D12051A432305124C4046224017
S1131EB0134362465B00D2075B081343190007B063
S1131EC03CBC90469946A246AB46F0BD0023802216
S1131ED09C4612039846034CE0E70023014C002281
S1131EE09846DBE7FF07000001FCFFFFD84900002C
S1131EF00DFCFFFFFFFF0F80D94500D939E100D168
S1131F0034E1002346464D469A46013C5B460A0EA0
S1131F101B021A430B02170C039313041B0C390006
S1131F20280090460193FEF795FE0200019B83462C
S1131F305A43280039009146FEF712FF350C090474
S1131F400D43A9450DD95B464544013BA84500D93D
S1131F503AE1A94500D837E102235B429C46454457
S1131F60E3444B46EB1A390018000493FEF772FE63
S1131F70019B05004343390004989946FEF7F0FE9F
S1131F80330409041B0C0B43994509D943446A1EC5
S1131F90984500D91AE1994500D817E1023D434418
S1131FA04A469B1A5A4612042A4303999346100C34
S1131FB00A0C914609045A46090C4E460D001204B7
S1131FC0120C4543059151437243704352190E0C50
S1131FD0B218954203D980256D02AC466044150CB5
S1131FE009041204090C28185218834200D2CEE0C6
S1131FF000D1C8E01D1A53469E1AB245924152427E
S1132000AB1A9A46984500D117E139001800FEF73B
S113201021FE019B05004343390050460493FEF71B
S11320209FFE04980B04310C1943884209D941449A
S11320306B1E884500D907E1884200D804E1023DBF
S11320404144049BCB1A180039000493FEF702FEA6
S1132050019B82464343390004980193FEF780FEB6
S113206001980B043104090C194388420DD95346D5
S11320704144013B884500D9E8E0884200D8E5E0C6
S113208002235B429C464144E244019B2D04CE1A48
S113209051462943059D4F462A000B04080C1B0C8E
S11320A05A4345437B4378435B19170CFB189D4205
S11320B003D980256D02AC4660441D0C12041B0438
S11320C0120C28189B18864200D293E000D18EE0AF
S11320D001231943A04BE318002B00DC99E04A07C5
S11320E000D09EE05A46D20106D55A469B4B1A4070
S11320F080239346DB00E318994A934268DD012369
S1132100029A984C1A400023944698460022C5E649
S113211080224B46120313420AD05B46134206D177
S11321201A431203120BAC4688468E4CB6E64B4655
S11321301A431203120BBC468A4CAFE603005A46FC
S1132140283B9A4000239146984657E6584600F0AB
S11321509BFC203040E603005246283B9A40002175
S1132160934677E600F090FC20305FE6884500D285
S1132170C7E64B46DE075D0843465B081E434346FD
S1132180DB079A46C2E60025924500D333E7039E57
S11321905946B446E244B245AD416D424544EB185C
S11321A00139984507D2984200D97FE000D1BCE0BC
S11321B01D1A8B461FE79845FAD1039D5545F2D960
S11321C043468B461D1A16E79B46CAE61500E7E60A
S11321D05A46C90852070A435B0590465C0D5A46A5
S11321E00123029952021940120B8C4656E6002B29
S11321F000D16FE746444A1EB04529D911008642F2
S113220000D065E7039A934200D061E762E70121B9
S113221049420120C21A382A21DD029B03409C4610
S113222038E60F220A40042A00D15BE70A00111D98
S1132230914292415242934454E7474BE318002B96
S1132240E5DD01225242F2E71D00FAE69A461CE758
S1132250B04239D86ED011003AE702933AE71F2A08
S11322603CDC20239B1A0C005846994098404B1E96
S113227099415B46D440D340204308431A004307A6
S113228009D00F230340042B05D00100081D884208
S11322909B415B42D21813023AD50123029A0124CE
S11322A01A400023944698460022F7E50221494249
S11322B08C46039DE344AC46E244AA45AD416D42DD
S11322C04544ED182D1A96E68A1E03994D008D4259
S11322D0894149424144761803958FE71F204042C3
S11322E0C31A5846D8400300202A28D040205D460F
S11322F0821A954029434A1E91411943072300221B
S11323000B4009D00F2300220B400800042BBDD141
S1132310010053075202120BC908194301238846CE
S11323200299002419408C46B8E55245BED88B4624
S1132330002560E6039D9D42C6D3110062E7002597
S1132340D8E780225B4612031A43019B1203120B47
S11323509C468846034CA1E5FF030000FFFFFFFEF7
S1132360FE070000FF070000F0B557464546DE466D
S11323704E46E0B50C0398464E00230B87B0070089
S113238092469B46760DCD0F002E6BD06D4B9E4230
S113239035D080245B46420F2404DB0014431C43E5
S11323A0C3009946684BA3469C4600230027664415
S11323B0029343461C035A00DB0F5046240B520D74
S11323C0984600D176E05F4B9A426DD08023410F4E
S11323D01B040B435C49E4008C461C43C3000020EF
S11323E062444146B6186940721C01919446074301
S11323F00F2F00D9B0E0554ABF00D25997465B462B
S11324000343994600D087E000239B460233082704
S11324100293CEE742460192022867D0032800D1F6
S11324200EE2012800D062E1002300240022994634
S113243001990140CDB2002112030B0D120B1B05B3
S11324401343434A240513401C436400ED07640806
S11324502C434846210007B03CBC90469946A2460E
S1132460AB46F0BD034399464FD05B46002B00D1E9
S113247089E1584600F008FB03000B3B1C2B00DDF0
S11324807AE11D22D31A3A0001005C46DA40083989
S11324908C4013008F4023439B46B94600232D4EA6
S11324A00027361A029384E7534623432AD1002493
S11324B0022096E75346234320D0002C00D157E155
S11324C0200000F0E1FA03000B3B1C2B00DD49E186
S11324D01D21CB1A51460200D9405346083A944074
S11324E093400C431B4A121A00207AE70125019BF2
S11324F0144C1D400023002299469CE7002400222E
S113250001206EE7534603206BE700239B4601330B
S11325100427002602934CE7032381460C270293E9
S113252047E780220023002512039946054C82E7E1
S11325305C464B4602986FE75C464B460195029811
S11325406AE7C046FF07000001FCFFFF184A0000CD
S1132550FFFF0F800DFCFFFF4A464946170C1A0C7B
S11325601B041B0C08041900000C41431500884689
S113257019007D4379430395894629001500454395
S11325804D44029545462D0CAA46029D5544A94545
S113259006D98A46802149028946CA445146039194
S11325A0290C0491414609042D04090C884629008C
S11325B0250C24044144240C059121004143884600
S11325C0210079438A466843414650448146080CB9
S11325D048446F43824503D98021490289464F44C8
S11325E0010C894639004944029141460F0404997B
S11325F03F0C88460004C019804441460491594662
S11326000F0C0904090C884659438A463900514382
S1132610894641464A435146090C8B467B43D218AE
S11326205A44934203D980235B029B46D9445146C2
S11326300904090C8A46414661437C43130C120485
S11326404B445244A1468A463C0041466C434D43A8
S113265051464D440F0C7D19A94503D980214902E7
S113266088464444049F0399B84641448B468345B5
S1132670804141428846514608042F04000C3F180B
S11326805846029910188946904292414F44BA46DE
S1132690524299469346C244D144CB448F42BF41EF
S11326A0C245894199459B41934592417F424942A4
S11326B02D0C52420F435B4213437F19FF185B46B4
S11326C03C19DB0D059A64021C43430213435D1E4F
S11326D0AB415A46C00D034352021343E20156D59F
S11326E001205A0803401343E207134364085A487D
S11326F0604400284DDD5A0709D00F221A40042AED
S113270005D01A1D9A429B415B42E4181300E20172
S113271004D58020514AC00014406044504A90427D
S113272000DDE3E60125DB0862071A436402019B2E
S11327309146220B4405640D1D407CE680225946D7
S11327401203114208D0144206D122431203120B81
S113275045469946434C6EE65B461A431203120BF8
S1132760404C68E603005446283B9C400023B9E6ED
S113277000F08AF92030A6E60300283B9F4000239E
S1132780BB4699468AE600F07FF9203074E6B446E9
S1132790ADE701252A1A382A06DD019B00241D40D5
S11327A000230022994646E61F2A21DC202520002A
S11327B0AD1A1E00AB40A840D6405D1EAB4130436D
S11327C01843D440430709D00F230340042B05D0FA
S11327D00300181D98429B415B42E418230221D553
S11327E00125019B01241D4000230022994622E675
S11327F01F2521006D42281AC1400800202A1DD03F
S11328005F35AA1A944023435C1EA3410725034362
S11328101D400022002D09D00F2200241A40180068
S1132820042AD6D1030065076402220BDB082B437C
S113283001259946019B00241D40FCE50024E2E7A4
S1132840802201251203224301991203120B0D4029
S11328509946044CEFE5C046FF030000FFFFFFFE6E
S1132860FE070000FF07000030B5134D0A034B00BC
S1132870120B5B0DC90F0024AB4210DD0F4CA342B9
S11328800FDC80240E4D64032243ED1A1F2D0BDD53
S11328900C48C31ADA405442002900D11400200025
S11328A030BD094BCC18FAE7084CE840A446634411
S11328B09A400243EFE7C046FE0300001D040000F7
S11328C03304000013040000FFFFFF7FEDFBFFFF54
S11328D04100090E4B1C70B5DBB24602750AC40FE9
S11328E0012B14DDE0239B006D07360BCB18002170
S11328F00A0D280012051C4D32435B052A405B0873
S113290013435B00E4075B082343190070BD0029EF
S113291014D1002D1ED0280000F0B6F80A281CDCC3
S11329200B232A001B1ADA40030015339D400F4B7A
S113293012031B1A5B05160B5B0DD8E7002D06D09E
S1132940320B802636036D071643094BCFE7084B3D
S11329500026CCE700230026C9E703002A000B3B2E
S11329609A400025E3E7C046FFFF0F80890300007B
S1132970FF070000F0B54C00640D0B03621C450F0B
S11329805B0A52052B43C90FC500520D012A28DDED
S11329903A4AA618FE2E1BDC002E3EDD8001020002
S11329A0501E82416D0F2A43DB0013435A0704D0A3
S11329B00F221A40042A00D004338022D2041A4081
S11329C05AD00136FF2E03D09B015B0AF4B201E01A
S11329D0FF2400235802E405400AC90720430843A2
S11329E0F0BD002C07D01D43F2D08020DB00800412
S11329F00343FF26DAE72B4303D00523DB08FF2C30
S1132A0003D05B025B0AE4B2E4E7002B32D08020FF
S1132A10C00303435B025B0ADCE73200173214DBBA
S1132A2080221E2712041343BF1B1F2F0FDC144ADE
S1132A30944664442A00A5402E00A340751EAE416E
S1132A40FA40334313430026B0E70024D5E70222BB
S1132A505242961B1A00F240202F09D0094884469E
S1132A606444A3402B435D1EAB41002613439DE702
S1132A700023F7E70023ADE73400BFE780FCFFFF46
S1132A8082FCFFFFA2FCFFFF1C2101231B049842D0
S1132A9001D3000C10391B0A984201D3000A0839EB
S1132AA01B09984201D30009043902A2105C4018A2
S1132AB07047C04604030202010101010000000046
S1132AC000000000FEE7C0460A4B10B5196802007A
S1132AD0002901D1084919601868084982188A42F6
S1132AE006D9FDF7F5FD0C2303600120404210BD1B
S1132AF01A60FCE754000020F8010020F8010020CF
S1132B00837802209842804140427047437A0020F3
S1132B10013B012B03D901200B7801330B70704763
S1132B2010B5002001F06EFC002803D0002108003D
S1132B3001F05CFC10BD0000024A1368013313600D
S1132B407047C0469800002037B5002000F0D4FE3E
S1132B50C02300240D4A9B0013600D4A0D4D1360E1
S1132B600D4A200013600D4B2C716C71AC711A6806
S1132B70FA239B0053430A492B6001F091FC29007E
S1132B8001AA200001F0CEFC37BDC04618901454B1
S1132B901C9014544C01002000A014547CFEFF1F10
S1132BA01C01002000230120344A10B51360344A6C
S1132BB034491360344A0133FF331360334A1360DA
S1132BC0334A1360334A1360334A1360334A136041
S1132BD0334A13600A78024032484DD00360324AC7
S1132BE0324813600022026031480260314A1360A7
S1132BF0314A1360314A1360314A1360314A136019
S1132C00314A13600B78DB0703D50220FF3001F053
S1132C104FF8092001F05AF80C2001F057F805206C
S1132C2001F054F8082001F051F80620FF3001F0BB
S1132C304DF80E20FF3001F049F88320400001F0E8
S1132C4045F80820FF3001F041F80C20FF3001F076
S1132C502FF88220400001F039F80420FF3001F001
S1132C6035F8072001F032F8062001F02FF8802013
S1132C70400001F02BF810BD0260B0E70C90145432
S1132C801090145478FEFF1F149014541890145488
S1132C901C901454209014542490145430901454C0
S1132CA000A0145404A0145408A014540CA01454E8
S1132CB010A0145414A0145418A014541CA0145498
S1132CC028A014542CA0145434A01454832010B5F8
S1132CD0400000F0EDFF024B186800F058FC10BDF6
S1132CE080FEFF1FF0B50025A7B00290002306AABE
S1132CF0AB5016AAAB50C922C92152006A43C9007D
S1132D00029F521803923A00803204920093019376
S1132D1049490098FEF728F8484C009B44431C1985
S1132D20474B9C421BDD1C1B464B9C4200DA77E060
S1132D302600664318213000FEF716F8802340135E
S1132D406043401360439B01B6139E1B40133B68D2
S1132D5086195E4306ABEB5805939E1B22E03A4A64
S1132D603A4B944258DA141B00229C42E0DD344B67
S1132D701C1B01235340DBD026006643182130007E
S1132D80FDF7F2FF802340136043401360439B012F
S1132D90B6139E1B40133B6886195E4306ABEB5883
S1132DA00593F618200006ABEE5060430621FDF7AC
S1132DB0DBFF039A4013944660434013041B01CF86
S1132DC0019B44431B190193009B63440093049BA0
S1132DD0BB429DD1019A16ABEA5006ABEB58009367
S1132DE0581353135B434043C018FEF739FFFDF7F4
S1132DF0B7FBFFF76DFD164B164AFFF7B5FAFFF761
S1132E0033FD154B3F280EDC58510435402D00D0BE
S1132E106CE7180027B0F0BD9C4207DD0122A6E74D
S1132E200022094BA4E73F225A51EEE7054B9C428E
S1132E30A2DA0122F5E7C04610C90000F036FFFF10
S1132E4088640000BCCDFFFF789BFFFF4432000084
S1132E507493783FFA7E6ABC5800002070B5002451
S1132E6001260021080000F04FFE0021080000F0B8
S1132E7059FE3200002100F065FE00210A4D605128
S1132E80080000F041FE0021080000F04BFE320073
S1132E90002100F057FE6359181860510434802C47
S1132EA0DFD1280070BDC0469C00002010B500246E
S1132EB0012388B001A920004B800C8000F05AFD4A
S1132EC00A220C4902A8FDF771FC02A9200000F0B7
S1132ED073FD2100200000F0DFFD082305AA210076
S1132EE02000147053601472547200F0E9FD08B0AD
S1132EF010BDC04608490000F0B5A5B013AC0021D0
S1132F0007222000FDF794FC724A0125189203223F
S1132F1003AB1B9305AB1C9309AB1F930BAB209323
S1132F200DAB21930FAB229311AB239318AB07AFD7
S1132F301A71002001AA1A9202931E9725701D94FB
S1132F4000F0C8FC280000F0C5FC8022624B12028D
S1132F501A6000F03BFB614A2B000221604800F03C
S1132F6059FB2900280000F061FB002001F0EAF978
S1132F700026FC2315A9DB0030000B804D808D80DA
S1132F80CE800E818E7201F009FA2A00310001A868
S1132F90FDF74EFC139B69460793A2882A20BA804A
S1132FA0A279BA7103223A700993A28805270A8587
S1132FB0A27909180A7024216A46521869461770C2
S1132FC00393A28808300A82A2798A7402220A73BF
S1132FD00593A2880A83A2798A7604220A750B9340
S1132FE0A2880A86A27909180A7069460822063856
S1132FF009180A7069460D93A2880E300A87A279CF
S113300009180A706A4609210638121811706A46AE
S11330100F93A3880C30121813806A46A3790230E8
S1133020121813706A460A230638121813704422C1
S11330306B469B181E7002AA2B001BA800F076FC9E
S11330402849294800F01AFEFFF7ACFD0820FF309C
S113305000F02EFEC82000F09AFA0820FF3000F09D
S113306035FEC82000F093FA0820FF3000F020FE5F
S1133070C82000F08CFA0820FF3000F027FEC8209A
S113308000F085FA0820FF3000F012FEC82000F09E
S11330907EFA0820FF3000F019FEFFF717FE00F05B
S11330A0CDF8FFF703FFFFF7D9FE0400380000F066
S11330B0FFFD2000FFF716FE0500380000F006FEB5
S11330C00024A3002000E958013400F08BF9102CEF
S11330D0F7D1E8E70D2B0000E401002068FEFF1F94
S11330E084FFFF1F94FEFF1F84FEFF1F10B5002006
S11330F000F0FAFD10BD10B5002001F09FF910BDDD
S1133100082310B5164A9178194202D091780B43DE
S11331109370882100222220124B49015A501249EF
S1133120124C087080201249400258501968114806
S113313001401960195910480840C021890401430D
S1133140195180210D4B1A7219767F391A705970F2
S11331500B490A700C3299791142FCD110BDC0465A
S113316000D007400070044000E007400410000055
S113317044100000FFFFF3FFFFFFFFF00040064094
S1133180005006401349144810B5814205D000226E
S1133190124B9B089B009A4210D1114B114A996023
S11331A0002311491148521A9A420BD100231800E6
S11331B00F49104A521A934208D110BD84588C50BA
S11331C00432E8E7CC5CC4540133EDE7CC1820703A
S11331D00133F0E7000000000000000000000000E0
S11331E000ED00E09C4C0000FC4A000000FEFF1FC4
S11331F0A0FFFF1FF401002037B50E24FF340500A3
S1133200200000F055FD200000F060FD0C2000F0CF
S11332105DFD4B230021074A0800157001934A3BCA
S11332200093054B01F0DAF90500200000F040FDA1
S113323028003EBD5501002054010020C02310B5D4
S11332408024634A9B001360624A64001360FFF7A2
S11332507BFC614B20001C60604B1C60604B1C605D
S113326000F026FD642000F092F9200000F02EFD0D
S1133270642000F08CF9200000F01AFD642000F0B6
S113328086F9AE20FFF7B8FFA020FFF7B5FF722044
S1133290FFF7B2FFA120FFF7AFFF0020FFF7ACFF5D
S11332A0A220FFF7A9FF0020FFF7A6FFA420FFF745
S11332B0A3FFA820FFF7A0FF3F20FFF79DFFAD204D
S11332C0FFF79AFF8E20FFF797FFB020FFF794FFD8
S11332D00B20FFF791FFB120FFF78EFF3120FFF79E
S11332E08BFFB320FFF788FFF020FFF785FF8A20CC
S11332F0FFF782FF6420FFF77FFF8B20FFF77CFF3F
S11333007820FFF779FF8A20FFF776FF6420FFF724
S113331073FFBB20FFF770FF3A20FFF76DFFBE205D
S1133320FFF76AFF3E20FFF767FF8720FFF764FF80
S11333300620FFF761FF8120FFF75EFF9120FFF772
S11333405BFF8220FFF758FF5020FFF755FF8320D3
S1133350FFF752FF7D20FFF74FFFAF20FFF74CFF31
S11333602620FFF749FF0120FFF746FF2520FFF73E
S113337043FF0020FFF740FF0020FFF73DFF5F20E1
S1133380FFF73AFF3F20FFF737FF2220FFF734FF14
S11333900020FFF731FF0020FFF72EFF5F20FFF72B
S11333A02BFF3F20FFF728FF0020FFF725FF3F20DA
S11333B0FFF722FF0020FFF71FFF0020FFF71CFF8D
S11333C03F20FFF719FF0020FFF716FF002010BD74
S11333D0209014542490145434A014543090145451
S11333E000A01454F8B50700062460250E0022201E
S11333F0FFF702FF7B1C63436743ED1AEDB25934B8
S11334002800E41BFFF7F8FEE4B20020FFF7F4FE07
S11334102000FFF7F1FE3F20FFF7EEFE0020FFF74C
S1133420EBFE0020FFF7E8FE0020FFF7E5FE00209A
S1133430FFF7E2FE0020FFF7DFFE0020FFF7DCFECF
S11334402220FFF7D9FE2800FFF7D6FE0020FFF761
S1133450D3FE2000FFF7D0FEF0B2FFF7CDFE002030
S1133460FFF7CAFE3F20FFF7C7FE0020FFF7C4FEA8
S11334700020FFF7C1FE3F20FFF7BEFE0020FFF74C
S1133480BBFEF8BD002341704360037083601800E5
S1133490704710B5437804000120FF2B08D000F0DA
S11334A03DFA63780133DBB2637000F02BFA00203D
S11334B010BD70B504000D0000F030FAE168294336
S11334C0E16000F01FFA002070BD000000220A4BEA
S11334D09A641A0040329A631A0030329A621A00CF
S11334E020329A611A0010329A60044A1360044B25
S11334F09B60DB607047C0465C01002058010020DF
S1133500AC0100200022024B1A60186880B2704798
S11335100C007C5070B5437804000D00002B0BD0D8
S1133520002500F0FBF96378013BDBB26370257082
S113353000F0E8F9280070BD02200029FBD02378B0
S1133540002B17D0FFF7DEFF6368A268984204D30C
S1133550C01A824206D30320EDE7C01A80235B021F
S1133560C018F6E700F0DAF90023237000F0CAF976
S11335700220E0E74B1CEED000F0D0F901232370C9
S113358000F0C0F9FFF7BEFFA5606060E3E770B527
S11335900500FFF7B7FF802604007602FFF7B2FFAD
S11335A0844203D8001B8542F8D270BD331B18181F
S11335B0F9E710B5012801D100F0B0F910BD10B53C
S11335C0012801D100F09EF910BD000010B5FFF7ED
S11335D07DFF01230020084A08491360084A094C6A
S11335E01060086004212160074C216007490B60CA
S11335F007490860136010BD3880045000008450EF
S113360000000450000004510400045104000C5054
S11336100000045310B5044C206021710020A26006
S11336202373637310BDC046BC010020F0B587B09E
S113363005AC01900291032200212000FDF7F8F867
S11336406B461B79042223706B461B7A3A4D6370D8
S11336502B790092019A934227D900222B7B1600E2
S11336606B7301230092A3700393334F3B7BB342EC
S11336701ED8009B002B02D0029B012B49D10120B4
S1133680FFF797FF0C20019B022658432B6818185C
S113369000F0BEF86B461B7901206B710025FFF723
S11336A08EFFA6703B7BAB421AD8009807B0F0BDE2
S11336B0BA68B3009B58002B0FD01A7903990A42B9
S11336C00BD01A68996820009047002805D0029B07
S11336D07E73002B1BD0052300930136F6B2C4E79A
S11336E0BA68AB009B58002B0ED01A7932420BD02B
S11336F01A68996820009047002805D0029B7D73C2
S1133700002B16D0062300930135EDB2CAE705233A
S113371000930023A370013EF6B2FF2EC5D0AA6821
S1133720B3009B58002BF6D01A6899682000904784
S1133730F1E706230093B8E7BC01002013B50400A9
S1133740002021780190022920D0032922D00129C8
S113375025D1227901AB144800F0F4FC002814D1DF
S1133760A3795A1E9341114ADB01137063785A1EE0
S113377093410F4A5B001370A2780E4B1A70E278E3
S11337800D4B1A7062790D4B1A7016BD227901AB7C
S11337900100E0E701A9044800F016FDDEE701A9F5
S11337A0014800F0B3FCD9E70040064018408653B6
S11337B00040865000400650014006501840165004
S11337C04309084A9B009B18F822C00512051040C3
S11337D080225205104318430068431E9841C0B22A
S11337E07047C04628800440F8214309074A9B00DB
S11337F09B180905C2051140802252050A43134350
S11338001F2210401E3A82401A60704728800440EC
S1133810072373B5009300230400104D1A000121FF
S1133820280000F0FDFD2000FFF788FF637A217A6D
S11338300093002328001A0000F0F2FDE379084AFF
S11338409B041360074BA17A1D68280000F0D8FC84
S11338502800E17A00F0DBFC002076BD0070044013
S113386000700C59B04A000010B5054800F010FC77
S1133870044B1968C9B20131FDF7ECF910BDC0461B
S1133880004006404480145810B5FFF7EDFF10BD0A
S11338900B4B1B68DBB2022B0CD0032B0DD0002B7F
S11338A001D000207047074A10688022120290421B
S11338B0F7D1F7E7044B1868F4E7FA208000F1E742
S11338C000700C59E4010020E801002010B5FFF756
S11338D0DFFF10BD10B5024B185CFFF785FF10BD6C
S11338E0584A000010B5BB20FFF77EFF10BD10B58D
S11338F0BB20FFF765FF10BD10B57620FFF774FFFE
S113390010BD0000044A1368002B04D0013B13606F
S1133910002B00D162B67047CC01002072B6024A77
S11339201368013313607047CC010020F7B507001A
S11339300E00150001930120002F18D0002916D085
S1133940FFF737FE0A4C102200212000FCF770FF1D
S113395027602671002D06D06B461B79A560237362
S11339606B461B7963730120FFF729FE0020FEBD1F
S1133970D001002070B506000D000120002915D0EB
S11339800B4BB2003000D458FFF7B1FF002802D12E
S11339903000FFF7A7FF22000020064B29882832B9
S11339A01A4311602C346A8823431A6070BDC046E0
S11339B05C4A000000007810F8B506000C000120F5
S11339C0002955D02D4BB200D5583000FFF78AFF9F
S11339D0280000F0E7FE62782B009C21501E8241F3
S11339E0083349051943D2010A60A178244A4901E0
S11339F01A431160E178234A89001A43116022496D
S1133A0022790B431A608C235B059C461F00637963
S1133A1028005A1E93410C300743DB003B60882387
S1133A205B051843A3795F1EBB419B000360E379E8
S1133A302F0098205A1E93412037400538439B019C
S1133A400360237A39430B60634624351D43637A4C
S1133A5020785A1E9341DB002B601F230B4A925D92
S1133A601A40002805D01E3B93400020084A1360EA
S1133A70F8BD01239340074AD367F9E75C4A000085
S1133A80000088120000081100000810604A0000BD
S1133A9000E100E004E100E0074B8000C3589022FD
S1133AA0180052050830024310201060034A0C33FA
S1133AB0134319607047C0465C4A000000000810B8
S1133AC0104B800030B5C4580120002A19D02000C2
S1133AD090250C306D05284305681378EDB2AB4290
S1133AE003D05D1EAB411B0103605368127A890049
S1133AF0501E82411F2003400020920109191343E4
S1133B000B6030BD5C4A0000054B8000C35889003F
S1133B10C9189C235B0519430B68012BFCD1704722
S1133B205C4A0000054B8000C35889001031C91855
S1133B30034B1943086880B27047C0465C4A0000D2
S1133B40000078100300012A05D0002A16D0022AAA
S1133B500BD0002008E00005000D002904D01B0B49
S1133B601B0300D0094B184370478005800D0029C2
S1133B70FAD09B0A9B02F6D0054BF4E7FF221040D3
S1133B800029F1D09343EED0024BECE700F0FFFFA5
S1133B9000FCFFFF00FFFFFFF7B5FF2403681C4A8A
S1133BA01D0A25401C40AB009F581A4A06009B582A
S1133BB028000193FFF78EFE00222100380000F058
S1133BC0F9FD019BA400E418842332795B052343A7
S1133BD052001A60802372795B0523431A60902394
S1133BE0B2795B05234312011A60F2790A4B1C4334
S1133BF013042360002A0AD0084B5B57002B06D01D
S1133C001F2213401E3A9A401300054A1360F7BD61
S1133C10B44A0000BC4A000000001818C44A00005E
S1133C2000E100E0F8B5FF2405000368114A180A12
S1133C3020401C4083009F580F4A9E58FFF74AFEBD
S1133C4038002100012200F0B5FD6A682100380027
S1133C5000F0C0FD88232A7AA400A4195B0523433D
S1133C6092001A6098235B051C436B7A9B012360C6
S1133C70F8BDC046B44A0000BC4A000070B50C0050
S1133C80002807D1002C0FD170BD05000835FFF7BF
S1133C9083FF280003680133F7D1F3E725002000F0
S1133CA00C35FFF7BFFF2C0023680133F6D1EBE797
S1133CB0FF22030A134004499B0059580123104072
S1133CC083404B607047C046B44A0000FF22030A99
S1133CD0134004499B0059580123104083408B60D2
S1133CE07047C046B44A0000084B8200D25894235F
S1133CF010B502325B0513431B78002B02D000F091
S1133D0037F810BD00F08AF8FBE7C046644A0000AB
S1133D10020080230C325B0513431A78002AFCD07E
S1133D200171704710B5104B8000C458E37C002B20
S1133D3005D0237C052B02D0237C042B0BD10B4B09
S1133D4018589823821C5B05134300221A7000F054
S1133D5049FD01236374A37C002B03D02000183099
S1133D60FFF797FB10BDC046E0010020644A000045
S1133D70244B70B58400E5588423EA1C5B05134387
S1133D8002221A709023A9185B050B431B78EA786A
S1133D90DBB292061DD5942252050A431278002AFA
S1133DA017D0194AA458012B14D1EA781A4204D026
S1133DB004332374FFF7B6FF0BE0E368013BE360D1
S1133DC0002BF7D0A36828005A1CA2605978FFF78B
S1133DD09FFF70BD6268013A6260002A06D08C239E
S1133DE05B05012A0AD00B43002209E0FFF79AFF82
S1133DF023685A1C22602A791A70EAE708220B43C6
S1133E001A70F5E7644A0000E0010020C31C842016
S1133E1040051843022303707047000090214905B0
S1133E200A00F0B58C4B07008000C55889B0EB1C24
S1133E300193EB78EE78DBB20793F3B20693AB1DF4
S1133E401A43944612789826D2B2059294225205C7
S1133E501A43824C127876050459A81CD2B2334313
S1133E600190084302921A780178D2B2C9B204913F
S1133E7002990390002931D0059900290DD010230F
S1133E80624628001370FFF7C1FF236B002B53D049
S1133E900121626BF8B298474EE0002A1ED04022FE
S1133EA028001A70FFF7B2FF23002C331B78002B75
S1133EB002D1019A16433370236B002B03D0F8B25E
S1133EC0626B80219847E37D002B04D02000802181
S1133ED01830FFF7EEFA0A2323702DE0069B280022
S1133EE09E1101231E40FFF791FF0122079B1B1126
S1133EF0134223D09023EA1C5B05134310221A704B
S1133F00002E0ED0EB785B07DB0F46D1039A1370BB
S1133F10236B002B03D0F8B2626B042198472B79F2
S1133F200AE0082323702C342278002A04D1982331
S1133F3001995B050B431A7009B0F0BD002EE1D165
S1133F40049B012B52D1EB78049A13422FD0039B8C
S1133F501E702B7923002C331B78002B09D1029B74
S1133F60002B06D19823019A5B0513436A46127A03
S1133F701A70236B002B03D0F8B2626B08219847A8
S1133F80A37D002B04D0200008211830FFF791FAFC
S1133F9000236360E3602375CEE71023039A137054
S1133FA0236B002B03D0F8B2626B0221984763683D
S1133FB0002B4FD028008022E3680C30520519787A
S1133FC0024310780028FCD029710133E360636850
S1133FD0013B63606368002BAED1E3602375236B00
S1133FE0002BA9D0F8B2626B102154E72B79A26898
S1133FF0DBB2002A2CD022691370236901332361B8
S1134000A368013BA360A368002B95D1029B002BFE
S113401013D123002C331B78002B06D19823019A4B
S11340205B0513436A46127A1A70E37D002B04D0B1
S1134030200020211830FFF73CFA00236375236128
S1134040236B002B00D177E7F8B2626B202122E7C3
S1134050072341E706233FE7644A0000E00100200C
S113406084235B0503431A7800239A4207D08023F4
S113407001305B0518430378012B02D0024B180072
S11340807047024BFBE7C04680841E0000127A0092
S113409010B50D4B821D13431B780400DBB2002BBB
S11340A00FD0012B07D1FFF7DBFF084B08341C436B
S11340B02378D84010BD0020022BFBD1044B186894
S11340C0F8E70448F6E7C046000008110000901025
S11340D0E4010020006CDC020B4B821D13431B78AF
S11340E0DBB2012B06D0181E0CD00320022B09D002
S11340F0052007E0802301305B0518430078434224
S1134100584101307047C0460000081102009C234A
S113411018325B05134380221A700022064B0343B6
S11341201A70064A063002431078C0B20028FBD148
S1134130034B0B607047C0460000081300000811D1
S1134140006CDC02F8B504000D0017001E00FFF738
S1134150C3FF012823D1002D25D08023621C5B05D9
S113416013431D70842302225B0523431A7022002B
S1134170104B083213437A00D2B21A7040220E4B0D
S113418023431A700D4B06341C432378012BFCD1B6
S1134190002D0DD10A4B3B4100203360F8BD0228AD
S11341A0DBD1012DD9D131002000FFF7AFFFD4E7D7
S11341B0044BF0E700009010000008130000081101
S11341C080841E0000127A000A4A10B51468012384
S11341D0002C0CD08024084B03431C70074B063082
S11341E018430378022BFCD113680B6000231800DA
S11341F010BDC046E40100200000081300000811AF
S11342009C23C9015B051843C9B20170704794230C
S113421049015B051843C9B2017070470188114A0E
S113422003008A1830B50020812A19D85A88541EF0
S11342300B2C15D89C88651E1E2D11D8DD88172DD2
S11342400ED81D893B2D0BD89B7A3B2B08D88B07A6
S113425001D1054B00E0054B9B5CA3424041C0B239
S113426030BDC0464EF8FFFF684A0000904A000087
S113427070B5134D838802885B196E25FF3555434D
S113428044885B1995085B190E4D6600755B5B19D4
S1134290920710D00B600A680B4BC4885343827A90
S11342A000899B18E122120162439B183C2242437D
S11342B09B180B6070BD022CECD8013BEAE7C046AA
S11342C04A05F5FF764A0000805101008023084A20
S11342D01B0212689A420AD10300A0201033400541
S11342E018430368002B02D10133FF330360704786
S11342F0E40100200100802210B5002301245205AE
S1134300103111430C600B60902143604905046037
S11343101C3001430B608821490501430B60842153
S11343204905014310430B60036010BD0200902354
S113433014325B05134300221A604260103201609C
S11343401A607047104B820070B5D5588022040063
S11343500E4B92051A602800FFF7CCFF2800FFF7E8
S1134360B5FF0B4B1F261A5D012318000949324083
S1134370095DC025314090408B40074A6D00505183
S113438053511060136070BDA04A00003C80845EED
S1134390A44A0000A54A000000E100E0F7B50027A8
S11343A0114B8000C65808000D000197FFF736FF37
S11343B00400B84216D001A92800FFF759FF3800BD
S11343C0FFF784FA010080200002814206D0FCF746
S11343D041FC01000198FCF73DFC0190019930007B
S11343E0FFF7A4FF2000FEBDA04A0000044B80009C
S11343F0C25888231C325B05134389001960704737
S1134400A04A0000054B8000C258882314325B0583
S113441013431868431E9841C0B27047A04A000075
S11344206B46E0221B78D2021B0413400907194390
S1134430014BC0180160704744100000084B820013
S1134440D258902310B503325B0513431B78002B1D
S113445002D000F0EFF810BD00F054F9FBE7C046BD
S1134460A84A00000C4B0D4A9C218000C358825876
S1134470002003324905114310B5187108709421C6
S113448049050A4310701A7F824203D02033180072
S1134490FEF7FFFF10BDC046EC010020A84A000053
S11344A0F7B50C0006001B4B3022870000212000CA
S11344B0FD58FCF7BDF93000FFF71EFAFFF7E4F9E9
S11344C02060280000F0ABF9200000212030FEF726
S11344D0D9FFEB1C01939023EA1C5B0513431022C4
S11344E028001A70032100F0DBF92800002100F0F5
S11344F0FCF9094BFC50094B9A5D1F231A401E3BE3
S11345009340074A13609823019A5B0513434022A2
S11345101A70F7BDA84A0000EC010020AC4A000064
S113452000E100E00A4B800070B5C658094B0C004E
S1134530C358150030001A68096800F077F928603C
S1134540A37930006279217900F0BCF970BDC046CE
S1134550A84A0000EC010020F7B51E4A83009C58CD
S1134560060022790420002A16D11B4A9D580029EE
S113457003D001AA3000FFF7D5FF98230021402083
S1134580EA1C5B0513431970187027698F4204D124
S11345903000FFF767FF0020FEBD01232371942341
S11345A05B05A1612B431B780720002BF4D0A36883
S11345B0191E02D019780133A360A9712369013B44
S11345C02361A3690133A3619C235B051A43802300
S11345D01370E0E7EC010020A84A0000F8B5134F7F
S11345E0134C85002C59ED590127069E2777A260AC
S11345F02661E3606661FFF7AFFF061E14D1200059
S113460007992030FEF786FF0328F8D000280BD046
S11346109C220021EB1C52051A4321711170942233
S113462003265205134319703000F8BDA84A000050
S1134630EC01002010B51E4B8200D35819790029D3
S113464034D01C4951585A69002A11D09C22520571
S11346500A431278002A0BD08A79DC68D2B2002C83
S113466003D02270DA680132DA605A69013A5A6179
S11346701A69002A12D0942252050A431278002A99
S11346800CD09A68141E02D0147801329A608C718E
S11346901A69013A1A619A6901329A611A69002AFF
S11346A004D15B69002B01D1FFF7DCFE10BDC046CD
S11346B0EC010020A84A0000104A80008158002222
S11346C00F4B10B5C3580331581CC2779C204005CA
S11346D00843DA621A701A835A629A621A63027081
S11346E09420400501430A701A0038321278002AD7
S11346F003D0181D0121FEF7DCFE10BDA84A0000FE
S1134700EC01002070B5254B8200D358591CC97F99
S1134710002941D022495258D96A002916DB942134
S1134720490511430978002910D0596A1C7F0029D2
S113473005D0DD6A002D02DD0C78013159629471D7
S1134740D96A0139D962596B01315963D96A00298F
S113475005DA9421D41C4905214300240C70196BFB
S1134760002911DD9C2149051143097800290BD04A
S11347709279996AD2B2002903D00A709A6A0132F6
S11347809A621A6B013A1A63DA6A002A04DC1B6B18
S1134790002B01DCFFF790FF70BDC046EC01002048
S11347A0A84A000000238360C3608361C36103627D
S11347B04362704714308023012A04D18A401B05C8
S11347C0184302607047DB04184301238B40DB432A
S11347D00360F7E701238B40002A01D04360704750
S11347E08360FCE79422811C52050A431278022359
S11347F0012A0BD18023DB040B43CE321A708022B2
S11348002021D200033003780B4001D118007047F7
S1134810013A002A01D0C046F5E70923F6E704234C
S1134820C37000238370437003717047F0B5130B9A
S113483089B00124049308230025644202931B19C0
S11348400790059106920193022700266B1C03939F
S1134850039906987943FCF7FDF9059B834206D337
S11348601B1AA34203D21C00049002960195013640
S11348707F00092E0DD1072D0ED17022019B0498C3
S11348801B011340029A1343079ADBB2537009B019
S1134890F0BD002CDCD1F0E7039D002CD4D1ECE773
S11348A0842310B50224C21C5B0513434A00224032
S11348B01A70902300195B0518431023C90019408E
S11348C0017010BD10B58C2403306405C900044385
S11348D0C9B221708821920049050143D2B20A70FD
S11348E0802252051043037010BD80230122023040
S11348F05B0503430A401A708C235B0518430823A5
S11349008900194001707047000003010000000095
S11349100001000008FEFF1F6414000034140000AE
S11349204614000088130000461400002A140000F6
S113493046140000881300003414000034140000EE
S11349402A14000088130000901300009013000044
S1134950901300004C1400003414000034140000C0
S113496008140000EC140000081400002A140000CD
S113497008140000EC140000341400003414000087
S11349802A140000EC14000090130000901300009F
S113499090130000F6140000E41700003417000020
S11349A03417000032170000D6170000D617000095
S11349B0CC17000032170000D6170000CC170000F7
S11349C0D617000032170000DC170000DC170000C7
S11349D0DC1700006C180000F81E0000DA1E00004E
S11349E0941E0000B21D0000941E0000CC1E0000A6
S11349F0941E0000B21D0000DA1E0000DA1E000042
S1134A00CC1E0000B21D0000AA1D0000AA1D00005B
S1134A10AA1D0000102100005825000018240000E1
S1134A201824000014240000302500003025000064
S1134A302225000014240000302500002225000057
S1134A40302500001424000038250000382500001B
S1134A50382500003C270000898A000000B003408C
S1134A600F00000000600640001F1D1F1E1F1E1FB8
S1134A701F1E1F1E1F00000000001F003B005A00E5
S1134A8078009700B500D400F300110130014E0105
S1134A90001F1C1F1E1F1E1F1F1E1F1E1F000000A5
S1134AA000D0034014150000006007400A00000015
S1134AB00050064000F00F4040F00F4000900440CA
S1134AC000A004401E1F0000737172746600000091
S1134AD043000000F8B5C046F8BC08BC9E467047C9
S10F4AE0F8B5C046F8BC08BC9E46704700
S10B4AECD8B9FF7F01000000AE
S1074AF4890400002D
S1074AF85D04000055
S1134AFC0100000008FEFF1F000000000000000081
S1134B0C0000000000000000000000000000000095
S1134B1C0000000000000000D04A0000000000006B
S1134B2C0000000000000000000000000000000075
S1134B3C0000000000000000000000000000000065
S1134B4C0000000000000000000000000000000055
S1134B5C00000000000000006CFEFF1F012B000091
S1134B6C030000000000000001000000C800000069
S1134B7C010000000101000001010000FFFFFFFF24
S1134B8C0000000000000000010000000100000013
S1134B9C0100000001000000010000000200000000
S1134BAC01000000010000000500000001000000ED
S1134BBC01000000080000000100000001000000DA
S1134BCC0C000000010000000100000000010000C6
S1134BDC01000000010000000501000001000000BC
S1134BEC01000000060100000100000001000000AB
S1134BFC0701000001000000010000000A01000090
S1134C0C01000000010000000B0100000100000085
S1134C1C010000000D010000010000000100000073
S1134C2C020100000100000001000000030100006B
S1134C3C010000000100000004010000010000005C
S1134C4C010000000600000001000000010000004B
S1134C5C0700000001000000010000000900000032
S1134C6C0100000001000000FFFFFFFF0000000036
S1134C7C0000000001010000000000000001000021
S1134C8C0000000000000100000100000000000012
S9030531C6
